:020000040800F2
:1000000000000220AD020008B5020008B902000895
:100010002D030008310300087903000800000000E8
:10002000000000000000000000000000C103000804
:10003000C503000800000000C903000811480008BB
:10004000FD300008FD300008FD300008FD300008DC
:10005000FD300008FD300008FD300008FD300008CC
:10006000FD300008FD300008FD300008FD300008BC
:10007000FD300008FD300008FD300008FD300008AC
:10008000FD300008FD3000081D4800080000000099
:10009000000000000000000000000000FD3000082B
:1000A000FD300008FD300008FD300008FD3000087C
:1000B000FD300008FD300008FD3000082D48000824
:1000C0003D480008FD300008FD300008FD30000804
:1000D000FD300008FD3000084D4800080000000019
:1000E000FD300008FD300008FD3000080000000071
:1000F000000000000000000000000000FD300008CB
:1001000000000000FD300008FD300008FD30000850
:1001100000000000000000000000000000000000DF
:10012000FD300008FD300008FD300008FD300008FB
:10013000FD3000080000000000000000000000008A
:10014000000000000000000000000000FD3000087A
:10015000FD300008FD300008FD3000085D48000853
:10016000FD300008FD300008000000000000000025
:10017000000000000000000000000000000000007F
:1001800000000000FD30000800000000000000003A
:10019000FD300008FD30000800B583B002F016FF06
:1001A000304B314A1360314A1360314B314A03E01E
:1001B00011681960043304322F498B42F8D32A4B5B
:1001C0001A682E4B9A4204D1284B1A682C4B9A423B
:1001D00000D0FEE7234B2B4A13602B4A13602B4BB6
:1001E00002E000221A600433294A9342F9D3254BD6
:1001F0001B6813B9244B1B6803B1FEE702F0F2FE43
:10020000694601A802F08CFE224C234B1C1BA41053
:10021000002504E01F4B53F8253098470135AC42C8
:10022000F8DC1E4C1E4B1C1BA410002504E01B4BCD
:1002300053F8253098470135AC42F8DC0099019815
:1002400003F034FC0546174C174B1C1BA41004E0AC
:10025000013C144B53F824309847002CF8DC284616
:1002600002F03AFEBABADECA00000020A800002060
:10027000000000205C7B0008AC000020785634129F
:1002800032547698B000002088110020B000002081
:100290008C11002004040008040400080404000871
:1002A00004040008040400080404000808B5FFF76B
:1002B00073FF00BF00BEFEE71EF0040F0CBFEFF39C
:1002C0000880EFF309807146414A10472DE9F0415B
:1002D00082B004468846134B5E6B9F6B9D6A1B6B16
:1002E00013F0020F0DD00F4BDB6A002B09DA4BF62F
:1002F000AB6102F0F3FE20B14FF00042094BDA622D
:100300000CE0094802F014FECDF800803B4632466E
:100310002946204602F06AFE00BEFEE702B0BDE8B4
:10032000F08100BF00ED00E0D479000800BEFEE7D8
:100330001EF0040F0CBFEFF30880EFF30980714645
:10034000244A10472DE9F04182B004468846084B04
:100350005E6B9F6B9D6A074802F0EAFDCDF8008056
:100360003B4632462946204602F040FE00BEFEE7EC
:1003700000ED00E0E47900081EF0040F0CBFEFF37D
:100380000880EFF309807146134A10472DE9F041C8
:1003900082B004468846084B5E6B9F6B9D6A074897
:1003A00002F0C6FDCDF800803B4632462946204685
:1003B00002F01CFE00BEFEE700ED00E0F079000850
:1003C00000BEFEE700BEFEE700BEFEE7704700008D
:0C03D000CD020008450300088D03000862
:1003DC005C7B000800000020AC0000205C7B000867
:1003EC000000001000000010B00000208C11002054
:0803FC000000001000000010D9
:1004100010B50446074B1B680748A0FB0330800952
:1004200000F054FB002221464FF0FF3000F010FB9B
:10043000002010BD0C000020D34D621008B50B4BFE
:100440001A6842F400721A601A6842F480621A60F4
:100450001A6842F480721A60032000F0E7FA002064
:10046000FFF7D6FF04F0A4F9002008BD003C0240CD
:10047000024A136801331360704700BF580E002012
:10048000014B1868704700BF580E002010B582B0AD
:100490000190FFF7F5FF0446FFF7F2FF001B019BF9
:1004A0009842F9D302B010BD4B4B5A6822F4403247
:1004B0005A60596842680A435A600268536823F4D4
:1004C0008073536002685368016943EA01235360F3
:1004D0000268536823F04073536002685168836870
:1004E0000B4353600268936823F4006393600268CF
:1004F0009168C3680B439360826A384B9A4214D068
:100500000268936823F07063936002689168836A5D
:100510000B4393600268936823F040539360026832
:100520009168C36A0B43936009E00268936823F003
:10053000706393600268936823F04053936002688D
:10054000936823F00203936002689368816943EA29
:1005500041039360036ABBB10268536843F40063CC
:1005600053600268536823F460435360436A013B5D
:100570004FF4604292FAA2F2B2FA82F2934001681A
:100580004A6813434B6004E00268536823F4006335
:1005900053600268D36A23F47003D3620168CA6AA5
:1005A000C369013B42EA0353CB620268936823F4B8
:1005B0000073936002689368016B43EA4123936080
:1005C0000268936823F480639360026893684169CA
:1005D00043EA812393607047002301400100000F2C
:1005E00028B310B50446036C23B9436480F83C304B
:1005F00002F026FE236C13F0100F13D1236C23F4AA
:10060000885323F0020343F0020323642046FFF7DC
:100610004BFF00206064236C23F0030343F00103CD
:10062000236400E00120002384F83C3010BD012049
:10063000704700BF82B00023019390F83C30012B3B
:1006400068D0012380F83C3003689A6812F0010FEB
:1006500013D19A6842F001029A60344B1B68344A05
:10066000A2FB03239B0C03EB4303019302E0019BDA
:10067000013B0193019B002BF9D10268936813F0B1
:10068000010F49D0036C23F4E06323F0010343F42A
:1006900080730364536813F4806F05D0036C23F4F4
:1006A000405343F480530364036C13F4805F04D01D
:1006B000436C23F00603436401E0002343640023FA
:1006C00080F83C306FF0220313600268536843F0F7
:1006D000806343F020035360164B5B6813F01F0FD9
:1006E0000AD103689A6812F0405F17D19A6842F005
:1006F00080429A60002016E003680F4A93420FD1AF
:100700009A6812F0405F0DD19A6842F080429A6078
:10071000002008E0022006E0002004E0002002E0C3
:10072000002000E0002002B0704700BF0C00002055
:1007300083DE1B4300230140002001400368D86C86
:10074000704700BF704700BF704700BF38B5044610
:1007500002681168536811F0020F2FD003F02003D4
:1007600063B3036C13F0100F03D1036C43F40073F5
:100770000364936813F0405F19D1A369BBB9D36ACE
:1007800013F4700F03D0936813F4806F0FD1536884
:1007900023F020035360236C23F480732364236CC1
:1007A00013F4805F03D1236C43F0010323642046DC
:1007B00002F070FD23686FF012021A602368196856
:1007C0005A6802F0800211F0040F36D0002A34D0AB
:1007D000226C12F0100F03D1226C42F400522264FA
:1007E0009A6812F4401F21D19A6B12F4401F03D073
:1007F0009A6812F4806F19D15A6812F4806F15D17B
:100800009A6812F0405F11D1A2697AB95A6822F051
:1008100080025A60236C23F480532364236C13F406
:10082000807F03D1236C43F001032364204600F052
:10083000FBF823686FF00C021A6022681168536895
:1008400003F0400311F0010F0FD073B1136813F0E0
:10085000010F0AD0236C43F4803323642046FFF752
:1008600071FF23686FF001021A60226811685368F3
:1008700003F0806311F0200F0CD05BB1636C43F088
:10088000020363646FF0200515602046FFF75CFFEC
:1008900023681D6038BD00BF30B482B000230193CF
:1008A00090F83C30012B00F0B080012380F83C3000
:1008B0000B68092B17D90568EA689BB203EB430361
:1008C0001E3B072404FA03F322EA0303EB600468E7
:1008D000E5688A680B8803EB43031E3B02FA03F3C7
:1008E0002B43E36013E005682A699BB203EB4303E3
:1008F000072404FA03F322EA03032B610468256941
:100900008B680A8802EB420293402B4323614B68B9
:10091000062B16D805686A6B03EB8303053B1F247F
:1009200004FA03F322EA03036B630468656B4B6804
:1009300003EB8303053B0A8802FA03F32B4363634B
:100940002EE00C2B16D805682A6B03EB8303233BA0
:100950001F2404FA03F322EA03032B630468256BC4
:100960004B6803EB8303233B0A8802FA03F32B4310
:10097000236315E00568EA6A03EB8303413B1F2408
:1009800004FA03F322EA0303EB620468E56A4B68A6
:1009900003EB8303413B0A8802FA03F32B43E36230
:1009A00002681C4B9A4207D10B68122B04D11A4AD9
:1009B000536843F4800353600268164B9A421FD178
:1009C0000B68164A934201D0112B19D1124A536871
:1009D00043F4000353600A68104B9A4210D1104B45
:1009E0001B68104AA2FB03239B0C03EB83035A00F2
:1009F000019202E0019B013B0193019B002BF9D185
:100A0000002380F83C30184600E0022002B030BCE1
:100A1000704700BF00200140002301401200001079
:100A20000C00002083DE1B43704700BF074AD368D9
:100A300023F4E0631B041B0C000200F4E060184385
:100A400040F0BF6040F40030D060704700ED00E03F
:100A500030B4164BDB68C3F30223C3F10704042C44
:100A600028BF04241D1D062D01D9DD1E00E0002530
:100A7000012303FA04F4013C2140A940AB40013BAF
:100A80001A400A43002806DA00F00F001201D2B221
:100A9000074B1A5407E01201D2B200F1604000F592
:100AA000614080F8002330BC704700BF00ED00E0DB
:100AB00014ED00E0420900F01F00012303FA00F0EA
:100AC000014B43F82200704700E100E00138B0F12B
:100AD000807F0AD2064B5860F021064A82F8231024
:100AE0000020986007221A6070470120704700BFFD
:100AF00010E000E000ED00E0042805D1054A13688D
:100B000043F0040313607047024A136823F00403A0
:100B10001360704710E000E008B502F05BFF08BD0D
:100B200078B110B50446437913F0FF0F03D10023C9
:100B3000037102F0C3FB0223637101236371002080
:100B400010BD0120704700BF90F83530DBB2022B9A
:100B500003D08023436501207047052380F835309A
:100B60000268136823F0010313600020704700BF80
:100B7000F0B583B00024BBE00123A3400A6803EA78
:100B80000205AB4240F0B3804A68022A01D0122A23
:100B900010D1E608083650F826C004F00702970086
:100BA0000F22BA402CEA020E0A69BA404EEA02024B
:100BB00040F82620026867000326BE40F64302EA9A
:100BC000060E4A6802F00302BA404EEA02020260D0
:100BD0004A6802F1FF3EBEF1010F03D9112A01D08C
:100BE000122A10D1826806EA020ECA68BA404EEA9A
:100BF00002028260426822EA03034A68C2F30012DA
:100C0000A2401A434260C3681E408B68BB40334316
:100C1000C3604B6813F0805F69D000230193374BAA
:100C20005A6C42F480425A645B6C03F48043019333
:100C3000019BA608B21C324B53F8222004F0030398
:100C40009B000F279F4022EA07072E4A904211D0AF
:100C500002F5806290420FD002F5806290420DD082
:100C600002F5806290420BD002F58062904209D179
:100C7000042208E0002206E0012204E0022202E051
:100C8000032200E0072202FA03F33B4302361C4A28
:100C900042F826301C4B1A68EB4302EA03064F6801
:100CA00017F4803F01D045EA0206174A16605268E1
:100CB00003EA02064F6817F4003F01D045EA020636
:100CC000114A5660926803EA02064F6817F4801FC3
:100CD00001D045EA02060C4A9660D26813404E687D
:100CE00016F4001F01D045EA0203074AD36001341D
:100CF0000F2C7FF641AF03B0F0BD00BF00380240BB
:100D00000038014000000240003C014003691942E4
:100D100001D0012070470020704700BF0AB18161F7
:100D200070470904816170474369594041617047C8
:100D300090F83E30DBB2402B0ED1036D2BB9026828
:100D4000436C03F0FE03136132E00268436C43F02E
:100D50000103DBB213612BE00369B3F5804F11D1BE
:100D600090F83D30DBB2212B05D10268436C03F0D3
:100D7000FE0313611CE00268436C43F00103DBB225
:100D8000136115E0036D43B90268436CDB1103F096
:100D9000060343F0F00313610AE0036D012B07D152
:100DA0000268436CDB1103F0060343F0F1031361A7
:100DB000002070470268436CDBB21361002070476B
:100DC00010B48BB090F83E30DAB2C16A046B90F880
:100DD0003D30DBB2222B40F0CC80036D4BB9402A72
:100DE00007D1009303685A6900929B690093009BA6
:100DF000C7E0036D9BB90369B3F5404F0FD10023E2
:100E0000019303685A6901929A690192019A1A68DA
:100E100042F480721A60036D01330365B1E0438DC3
:100E20009BB25BB9029303685A6902929A69029273
:100E3000029A1A6842F400721A6097E0438D9BB2DE
:100E4000012B54D111F5803F22D10268136823F49D
:100E50008063136003685A6812F4006F0CD01A683C
:100E600022F480621A600023039303685A69039294
:100E70009B690393039B79E0002204925A690492D0
:100E80009A690492049A1A6842F400721A606DE03A
:100E900004291AD0082918D0122C16D0C36A022BA4
:100EA00005D00268136823F48063136004E00268CD
:100EB000136843F4806313600023059303685A6941
:100EC00005929B690593059B50E00268136823F423
:100ED000806313600023069303685A6906929A6937
:100EE0000692069A1A6842F400721A603EE0438D38
:100EF0009BB2022B24D1C36A022B0AD0026813686A
:100F000023F4806313600268136843F40063136082
:100F100004E00268136843F48063136003685A684E
:100F200012F4006F03D05A6842F480525A600023D2
:100F3000079303685A6907929B690793079B15E01B
:100F40000268136843F48063136003685A6812F4FC
:100F5000006F03D05A6842F480525A60002308930D
:100F600003685A6908929B690893089B00230365EC
:100F700007E00023099303685A6909929B69099362
:100F8000099B00200BB010BC704700BF438D9BB283
:100F900053B10268436A591C41621B781361438D47
:100FA0009BB2013B9BB2438500207047438D9BB2AF
:100FB00053B1436A5A1C4262026812691A70438D27
:100FC0009BB2013B9BB243850020704703685A697E
:100FD00012F4806F0DD06FF480625A6104230364B1
:100FE00000230363202280F83D2080F83C3001205C
:100FF00070470020704700BFF8B506460C461746FC
:101000001D4614E0B5F1FF3F11D02DB1FFF738FABE
:10101000069BC01A85420AD200233363202286F839
:101020003D2086F83E3086F83C300320F8BDC4F3FE
:101030000743012B08D133685B6924EA03039BB2A1
:10104000B3FA83F35B0907E033689B6924EA03037F
:101050009BB2B3FA83F35B09BB42D3D00020F8BD47
:10106000F8B504460D4616461F4629E023685A691E
:1010700012F4806F12D01A6842F400721A6023686A
:101080006FF480625A6104232364002323632022C7
:1010900084F83D2084F83C300120F8BDB6F1FF3FD4
:1010A0000ED026B1FFF7ECF9C01B864208D2002310
:1010B0002363202284F83D2084F83C300320F8BDCF
:1010C000C5F30743012B08D123685B6925EA0303B5
:1010D0009BB2003318BF012307E023689B6925EA10
:1010E00003039BB2003318BF0123002BBED10020A5
:1010F000F8BD00BFF0B583B004460F4615461E4646
:10110000C36A042B04D0012B02D013F5803F05D114
:101110002268136843F48073136007E0036B122B9B
:1011200004D10268136843F48073136000962B4661
:1011300000224FF001112046FFF75EFF58BB2369E4
:10114000B3F5804F04D1236807F0FE071F6115E057
:101150002268FB1103F0060343F0F00313613346EA
:101160002A4611492046FFF77BFF20B1236C042B50
:1011700013D1012314E02368FFB21F6133462A46CE
:101180000A492046FFF76CFF034648B1236C042B45
:1011900005D1012304E0032302E0032300E003233D
:1011A000184603B0F0BD00BF0800010002000100B6
:1011B0002DE9F04184B004460F4615461E46C26A2A
:1011C00001680B6843F480630B60042A04D0012A91
:1011D00002D012F5803F05D12268136843F4807372
:1011E000136007E0036B112B04D10268136843F40A
:1011F0008073136000962B4600224FF001112046A9
:10120000FFF7FAFE002851D12369B3F5804F05D1CD
:10121000236847F00107FFB21F613AE023684FEAF5
:10122000E71808F0060848F0F0021A6133462A462B
:1012300025492046FFF714FF20B1236C042B37D13A
:1012400001233CE02368FFB21F6133462A461F4951
:101250002046FFF705FF20B1236C042B2AD1012380
:101260002DE0002203922368596903919969039143
:101270000399196841F48071196000962B464FF06C
:1012800001112046FFF7B8FEB0B9226848F0F1031B
:10129000136133462A460D492046FFF7E1FE034617
:1012A00068B1236C042B09D1012308E0032306E075
:1012B000032304E0032302E0032300E00323184692
:1012C00004B0BDE8F08100BF080001000200010089
:1012D00070B504460D46164619E02046FFF776FE27
:1012E000E0B9B5F1FF3F12D025B1FFF7C9F8801B77
:1012F00085420CD2236C43F0200323640023236334
:10130000202284F83D2084F83C30032070BD2368FF
:101310005B6913F0800FE0D0002070BD012070BD2C
:1013200070B504460D46164619E02046FFF74EFEFE
:10133000E0B9B5F1FF3F12D025B1FFF7A1F8801B4E
:1013400085420CD2236C43F02003236400232363E3
:10135000202284F83D2084F83C30032070BD2368AF
:101360005B6913F0040FE0D0002070BD012070BD58
:1013700070B505460C46164622E05A6912F0100F69
:101380000CD06FF010025A6100232B642B632022D3
:1013900085F83D2085F83C30012070BD24B1FFF771
:1013A0006FF8801B84420BD22B6C43F020032B641C
:1013B000202385F83D30002385F83C30032070BDA4
:1013C0002B685A6912F0400FD7D0002070BD00BFC3
:1013D000002800F0838038B5044690F83D3013F0C3
:1013E000FF0F04D1002380F83C3002F0C7F824231B
:1013F00084F83D302268136823F00103136001F084
:10140000CDFA374BA3FB00239B0C22685360216865
:101410006568344A954201D8013308E04FF496726A
:1014200002FB03F3304AA2FB03239B0901330B6247
:10143000216863682B4A934208D85B00B0FBF3F045
:10144000C0F30B03032B2BD8042029E0A5684DB96A
:1014500003EB4302B0FBF2F2C2F30B02B2FA82F2E8
:1014600052090AE003EB830202EB8202B0FBF2F2C4
:10147000C2F30B02B2FA82F2520982B935B903EB18
:101480004303B0FBF3F040F4004009E003EB8303B7
:1014900003EB8303B0FBF3F040F4404000E0012095
:1014A000C8612268E169236A0B43136022682169DD
:1014B000E3680B43936022686169A3690B43D360BF
:1014C0002268136843F00103136000202064202386
:1014D00084F83D30206384F83E0038BD0120704719
:1014E00083DE1B43A0860100D34D62102DE9F0413D
:1014F00084B004460D4690461F46FEF7C1FF94F89F
:101500003D30DBB2202B40F0A1800646009019232D
:10151000012255492046FFF76FFD002840F09880D2
:1015200094F83C30012B00F09580012384F83C3086
:1015300023681A6812F0010F03D11A6842F0010201
:101540001A602268136823F400631360212384F86F
:101550003D30102384F83E3000232364C4F82480F7
:101560006785A3F58033E362638D238533460A9A4A
:1015700029462046FFF7BEFD054660B1236C042BCB
:1015800004D1002384F83C30012568E0002384F86E
:101590003C30032563E00023039323685A690392D8
:1015A0009B690393039B40E032460A992046FFF76C
:1015B0008FFE48B1236C042B4ED12268136843F48C
:1015C0000073136001254AE02268636A591C616256
:1015D0001B781361638D9BB2013B9BB26385238DA6
:1015E000013B238523685A6912F0040F0DD067B1BF
:1015F000626A511C616212781A61638D9BB2013B71
:101600009BB26385238D013B238532460A99204690
:10161000FFF786FE48B1236C042B1FD122681368A4
:1016200043F400731360012519E0238D002BBBD117
:101630002268136843F400731360202384F83D305C
:10164000002384F83E3084F83C3008E0022506E0B0
:10165000022504E0022502E0032500E003252846D8
:1016600004B0BDE8F08100BF020010002DE9F04198
:1016700086B004460D4690461F46FEF701FF94F8DB
:101680003D30DBB2202B40F05E81064600901923EE
:10169000012294492046FFF7AFFC002840F0558115
:1016A00094F83C30012B00F05281012384F83C3047
:1016B00023681A6812F0010F03D11A6842F0010280
:1016C0001A602268136823F400631360222384F8ED
:1016D0003D30102384F83E3000232364C4F8248076
:1016E0006785A3F58033E362638D238533460C9AC7
:1016F00029462046FFF75CFD054660B1236C042BAC
:1017000004D1002384F83C3001252BE1002384F828
:101710003C30032526E1238D5BB9029323685A6987
:1017200002929A690292029A1A6842F400721A604E
:10173000FCE0012B11D12268136823F4806313604D
:101740000023039323685A6903929A690392039AC8
:101750001A6842F400721A60E8E0022B12D1226883
:10176000136823F4806313602268136843F40063F2
:1017700013600023049323685A6904929B690493BD
:10178000049BD3E02268136843F480631360002352
:10179000059323685A6905929B690593059BC5E0EB
:1017A000032B00F29380012B1AD132460C9920466C
:1017B000FFF7DEFD28B1236C202B40F0CA80032503
:1017C000D0E0636A5A1C6262226812691A70238D23
:1017D000013B2385638D9BB2013B9BB26385A5E0F2
:1017E000022B2BD100960C9B00223F492046FFF78D
:1017F00003FC002840F0AF802268136843F40073B4
:101800001360636A5A1C6262226812691A70238D1F
:10181000013B2385638D9BB2013B9BB26385636A69
:101820005A1C6262226812691A70238D013B23855B
:10183000638D9BB2013B9BB2638577E000960C9B66
:10184000002229492046FFF7D7FB002840F0858079
:101850002268136823F480631360636A5A1C62620F
:10186000226812691A70238D013B2385638D9BB218
:10187000013B9BB2638500960C9B00221A492046CF
:10188000FFF7BAFB00286AD12268136843F400739B
:101890001360636A5A1C6262226812691A70238D8F
:1018A000013B2385638D9BB2013B9BB26385636AD9
:1018B0005A1C6262226812691A70238D013B2385CB
:1018C000638D9BB2013B9BB263852FE032460C993E
:1018D0002046FFF74DFD48B1236C202B41D1032555
:1018E00040E000BF0200100004000100636A5A1CBF
:1018F0006262226812691A70238D013B2385638D11
:101900009BB2013B9BB2638523685A6912F0040FB6
:101910000CD0626A511C61621B691370238D013BFC
:101920002385638D9BB2013B9BB26385238D002B86
:101930007FF436AF202384F83D30002384F83E3016
:1019400084F83C300EE002250CE002250AE0022576
:1019500008E0012506E0032504E0032502E0032555
:1019600000E00125284606B0BDE8F081704700BFC1
:10197000704700BF704700BF90F83D30DAB2438D2A
:101980009BB2F3B110B50168436A5C1C44621B78DA
:101990000B61438D9BB2013B9BB24385438D9BB250
:1019A0006BB9292A0BD10268536823F48063536012
:1019B00021230363282380F83D30FFF7DBFF00205D
:1019C00010BD0020704700BF704700BF08B590F8F9
:1019D0003D30DAB2438D9BB2DBB1436A591C4162A0
:1019E000016809691970438D9BB2013B9BB2438525
:1019F000438D9BB26BB92A2A0BD10268536823F43A
:101A00008063536022230363282380F83D30FFF76F
:101A1000DBFF002008BD00BF704700BF08B50368AA
:101A20009A6912F0040F01D0002100E001219B69A6
:101A300013F0800F01D1828900E0028BFFF7ECFFE9
:101A4000002008BD704700BF08B590F83D30DBB2FC
:101A5000C26A042A01D0082A1BD1282B19D11E4B97
:101A6000C3620268536823F4E063536003686FF451
:101A700080625A610268136823F480631360002354
:101A80000363202280F83D2080F83E30FFF7DAFF24
:101A900020E0212B1AD1104BC362212303632023A2
:101AA00080F83D30002380F83E300268536823F40C
:101AB000E063536003686FF480625A6102681368E0
:101AC00023F480631360FFF755FF03E003686FF4AE
:101AD00080625A61002008BD0000FFFF704700BF10
:101AE00010B590F83D30DBB290F83E20D2B2C46A17
:101AF000018D002938D1212B36D1042C14D0082C8B
:101B000012D014F5803F0FD00268536823F4E063CD
:101B1000536011230363002380F83E30202380F8B4
:101B20003D30FFF723FF7EE00268536823F4E06353
:101B300053600268136843F4007313600023036367
:101B4000202380F83D3090F83E30DBB2402B05D1A9
:101B5000002380F83E30FFF7C1FF64E0002380F8E7
:101B60003E30FFF703FF5EE0212B03D0402A5AD11D
:101B7000222B58D1438D9BB22BB90268536823F4B2
:101B8000806353604FE090F83E30DBB2402B3FD192
:101B9000036D9BB9C36C012B07D10268836CDBB268
:101BA0001361036D023303653DE00268836CC3F388
:101BB00007231361036D0133036534E0036D012BCB
:101BC00007D10268836CDBB21361036D01330365D7
:101BD00029E0036D022B26D190F83D30DBB2222B99
:101BE00005D10268136843F4807313601BE090F81A
:101BF0003D30DBB2212B16D10268436A591C416289
:101C00001B781361438D9BB2013B9BB243850AE075
:101C10000268436A591C41621B781361438D9BB271
:101C2000013B9BB24385002010BD00BF08B5C26ACE
:101C300090F83D30DBB2212B44D1438D9BB25BB198
:101C40000268436A591C41621B781361438D9BB241
:101C5000013B9BB2438535E0042A14D0082A12D0F8
:101C600012F5803F0FD00268536823F4E06353609D
:101C700011230363002380F83E30202380F83D3099
:101C8000FFF774FE1EE00268536823F4E0635360BC
:101C90000268136843F40073136000230363202376
:101CA00080F83D3090F83E30DBB2402B05D1002368
:101CB00080F83E30FFF712FF04E0002380F83E304A
:101CC000FFF754FE002008BD704700BF08B590F82C
:101CD0003D30DBB2222B5FD1438D9BB2032B0BD95E
:101CE000436A5A1C4262026812691A70438D9BB2A1
:101CF000013B9BB243854FE0023B012B18D8C36ADE
:101D0000022B0AD00268136823F480631360026810
:101D1000136843F40063136004E00268136843F43B
:101D2000806313600268536823F48063536033E078
:101D3000C36A022B05D00268136823F48063136022
:101D400004E00268136843F4806313600268536818
:101D500023F4E0635360436A5A1C426202681269CA
:101D60001A70438D9BB2013B9BB24385202380F8C0
:101D70003D3090F83E30DBB2402B06D100230363A8
:101D800080F83E30FFF7A0FF06E012230363002334
:101D900080F83E30FFF7ECFD002008BD08B5C26AB0
:101DA000438D9BB2032B17D1042A04D0082A02D0FA
:101DB00012F5803F04D10268136823F48063136036
:101DC000436A5A1C4262026812691A70438D9BB2C0
:101DD000013B9BB243855AE0438D9BB2022B4BD112
:101DE000042A12D0082A10D012F5803F0DD0022A02
:101DF00005D00268136823F4806313600AE0026868
:101E0000136843F48063136004E00268136843F4CA
:101E100000731360436A5A1C4262026812691A70A6
:101E2000438D9BB2013B9BB24385436A5A1C42627D
:101E3000026812691A70438D9BB2013B9BB24385C5
:101E40000268536823F440735360202380F83D30C8
:101E500090F83E30DBB2402B06D10023036380F8BC
:101E60003E30FFF731FF12E012230363002380F8B6
:101E70003E30FFF77DFD0AE0436A5A1C4262026869
:101E800012691A70438D9BB2013B9BB243850020BF
:101E900008BD00BF704700BF704700BF10B50446C3
:101EA00090F83D30293B012B05D8002303632823FC
:101EB00080F83D3010E090F83D30DBB2602B07D069
:101EC00003685B6813F4006F02D1202380F83D3073
:101ED0000023236384F83E302268136823F40063F0
:101EE000136023685A6812F4006F3AD05A6822F4DB
:101EF00000625A60626B92F83530DBB2012B12D06F
:101F0000374B1365606BFEF71FFE002851D0226827
:101F1000136823F001031360202384F83D30606BC5
:101F2000036D984745E0A36B2D4A1A65A06BFEF739
:101F30000BFE00283DD023685A6912F0400F04D0F0
:101F4000626A511C61621B6913702268136823F076
:101F500001031360202384F83D30A06B036D984784
:101F600027E094F83D20D2B2602A16D1202284F8CE
:101F70003D20002222645A6912F0400F04D0626AA8
:101F8000511C61621B6913702268136823F00103FE
:101F900013602046FFF780FF0BE05A6912F0400FF4
:101FA00004D0626A511C61621B6913702046FFF7FE
:101FB00071FF94F83D30DBB2282B0FD1236C13F066
:101FC000040F0BD0074BE36200232363202284F825
:101FD0003D2084F83E302046FFF734FD10BD00BFA1
:101FE000192300080000FFFF10B582B090F83D30C3
:101FF000DBB201684A6822F4E0624A600022019282
:10200000026851690191116841F001011160019A62
:1020100001680A6822F480620A6001684A6812F462
:10202000006F14D090F83D20D2B2222A04D090F84C
:102030003D20D2B22A2A05D1826B1268526892B230
:10204000428504E0426B1268526892B24285428D2A
:1020500092B202B34A6912F0040F09D0426A541CCA
:10206000446209691170428D92B2013A92B242857E
:102070000268516911F0400F09D0416A4C1C44625A
:1020800012690A70428D92B2013A92B24285026C94
:1020900042F004020264026C12B1FFF7FFFE1FE07F
:1020A000282B03D02A2B01D0292B0BD10E4BC36236
:1020B00000230363202280F83D2080F83E30FFF7A4
:1020C000C1FC0DE0026B222A01D0222B08D1002393
:1020D0000363202280F83D2080F83E30FFF774FC37
:1020E000002002B010BD00BF0000FFFFF8B505469C
:1020F00003689F695C695E6890F83E30DBB2102B24
:1021000001D0402B4FD114F0011F06D016F4007FF0
:1021100003D02846FEF70CFE12E0454B234033B1B6
:1021200016F4007F03D02846FEF744FE08E0414B3A
:1021300023402BB116F4007F02D02846FEF740FE64
:102140003D4B3B40BBB13D4B23404BB116F4806F40
:1021500006D03B4B23401BB92846FFF7C1FCF8BD16
:10216000374B2340002B61D016F4007F5ED0284609
:10217000FFF75CFDF8BD334B23404BB116F4806F85
:1021800006D02F4B23401BB92846FFF79FFDF8BD13
:102190002B4B2340002B49D016F4007F46D0284615
:1021A000FFF7FCFDF8BD234B23402BB116F4007F55
:1021B00002D0FFF733FCF8BD234B234033B116F4B4
:1021C000007F03D02846FFF70FFFF8BD1A4B3B40B6
:1021D000B3B11A4B23404BB116F4806F06D0184BA5
:1021E00023401BB92846FFF7C7FBF8BD144B23401B
:1021F000E3B116F4007F19D02846FEF7C7FEF8BDFC
:10220000104B23404BB116F4806F06D00C4B23408B
:102210001BB92846FFF7DAFBF8BD094B23402BB169
:1022200016F4007F02D02846FEF7C0FEF8BD00BFBE
:1022300008000100020001000400100080000100FD
:1022400004000100400001001000010070B50446C8
:1022500003685D695E682F4A154209D016F4807FD5
:1022600006D0026C42F0010202646FF480725A617F
:1022700015F4813F0AD016F4807F07D0236C43F019
:102280000203236423686FF400725A6115F4823FDD
:102290002CD016F4807F29D094F83E30DBB2628DCA
:1022A00091B294F83D20D2B2206B202B0CD159B9B9
:1022B000212A05D0292A03D0282A05D1212803D193
:1022C0002046FFF7C1FB11E0236C43F004032364B5
:1022D00094F83E30DBB2102B04D12268136843F42B
:1022E0000073136023686FF480625A6115F4843FB1
:1022F0000AD016F4807F07D0236C43F008032364D0
:1023000023686FF400625A61236C13B12046FFF713
:10231000C5FD70BD0001010008B5806B026813683F
:1023200023F48063136000234385426B1365826B43
:10233000136590F83D30DBB2602B0ED1202380F87E
:102340003D30002380F83E3003640268136823F0B8
:1023500001031360FFF7A0FD08BD202380F83D3086
:10236000002380F83E300268136823F001031360F5
:10237000FFF790FD08BD00BF30B583B00446036889
:1023800013F0010F5AD09F4B9B6803F00C03042BF2
:102390000AD09C4B9B6803F00C03082B0DD1994B82
:1023A0005B6813F4800F08D0964B1B6813F4003F52
:1023B00044D06368002B41D19DE16368B3F5803F51
:1023C00005D1904A136843F48033136015E0B3F5E8
:1023D000A02F09D18B4B1A6842F480221A601A6828
:1023E00042F480321A6008E0864B1A6822F4803288
:1023F0001A601A6822F480221A6063687BB1FEF7C3
:102400003FF8054605E0FEF73BF8401B642800F264
:1024100074817C4B1B6813F4003FF4D00EE0FEF790
:102420002FF8054605E0FEF72BF8401B642800F264
:102430006681744B1B6813F4003FF4D1236813F0DA
:10244000020F5AD06F4B9B6813F00C0F0AD06D4BE4
:102450009B6803F00C03082B1BD16A4B5B6813F4D9
:10246000800F16D1674B1B6813F0020F03D0E3688F
:10247000012B40F046816348036823F0F80123698B
:10248000F82292FAA2F2B2FA82F293400B4303606E
:1024900033E0E368FBB101225B4B1A60FDF7F0FF0C
:1024A000054605E0FDF7ECFF401B022800F22B81FA
:1024B000544B1B6813F0020FF4D05248036823F00A
:1024C000F8012369F82292FAA2F2B2FA82F293405A
:1024D0000B43036011E000224B4B1A60FDF7D0FF65
:1024E000054605E0FDF7CCFF401B022800F20D81F8
:1024F000444B1B6813F0020FF4D1236813F0080F4C
:1025000026D0636993B10122404B1A60FDF7B8FFF2
:10251000054605E0FDF7B4FF401B022800F2F780F6
:10252000384B5B6F13F0020FF4D011E00022374BF1
:102530001A60FDF7A5FF054605E0FDF7A1FF401B6A
:10254000022800F2E6802F4B5B6F13F0020FF4D1EC
:10255000236813F0040F69D000230193294B1A6CF0
:1025600042F080521A641B6C03F080530193019B6C
:10257000274A136843F480731360FDF781FF054613
:1025800005E0FDF77DFF401B022800F2C480204BD0
:102590001B6813F4807FF4D0A368012B05D1194A7E
:1025A000136F43F00103136714E0052B09D1154B9A
:1025B0001A6F42F004021A671A6F42F001021A679A
:1025C00008E0104B1A6F22F001021A671A6F22F00E
:1025D00004021A67A3688BB1FDF752FF054607E0B6
:1025E000FDF74EFF401B41F28833984200F2958080
:1025F000044B1B6F13F0020FF2D017E0FDF740FF02
:1026000005460EE00038024000004742800E474277
:1026100000700040FDF734FF401B41F288339842C0
:102620007DD8454B1B6F13F0020FF3D1A369002B2C
:1026300077D0414A926802F00C02082A73D0022B2C
:1026400046D100223D4B1A60FDF71AFF054604E013
:10265000FDF716FF401B022867D8374B1B6813F0A5
:10266000007FF5D1E169236A1943636A47F6C072B6
:1026700092FAA2F2B2FA82F293401943A36A5B087B
:102680005A1E4FF4403393FAA3F3B3FA83F302FADA
:1026900003F30B43E26A4FF0706191FAA1F1B1FAD2
:1026A00081F18A401343244A53600122234B1A606C
:1026B000FDF7E6FE044604E0FDF7E2FE001B0228FB
:1026C00035D81D4B1B6813F0007FF5D0002031E09A
:1026D00000221A4B1A60FDF7D3FE044604E0FDF712
:1026E000CFFE001B022824D8134B1B6813F0007F79
:1026F000F5D100201EE001201CE003201AE0032099
:1027000018E0012016E0032014E0032012E003206B
:1027100010E003200EE003200CE003200AE0032079
:1027200008E0002006E0012004E0032002E003208E
:1027300000E0032003B030BD003802406000474293
:10274000244B9B6803F00C03042B3FD0082B01D0D3
:102750002148704710B41F4B586800F03F005B6879
:1027600013F4800F10D01D4BB3FBF0F0194B5A68D7
:1027700047F6C0710A4091FAA1F3B3FA83F322FA43
:1027800003F303FB00F310E0134BB3FBF0F0114B2A
:102790005A6847F6C07402EA040194FAA4F2B2FA45
:1027A00082F221FA02F202FB00F30A4A506800F4B6
:1027B00040324FF4403090FAA0F0B0FA80F022FAA4
:1027C00000F001304000B3FBF0F001E00348704737
:1027D00010BC7047003802400024F40000127A0058
:1027E00070B5674B1B6803F00F038B4208D2CBB266
:1027F000634A1370136803F00F03994240F0AE80F0
:10280000036813F0020F06D05E4CA36823F0F002B9
:1028100083681343A3600D460446036813F0010F59
:1028200060D04268012A05D1564B1B6813F4003F63
:102830000FD195E0931E012B05D8524B1B6813F066
:10284000007F06D18EE04F4B1B6813F0020F00F0A3
:102850008B804C498B6823F0030313438B60FDF797
:102860000FFE06466368012B0ED106E0FDF708FE59
:10287000801B41F28833984278D8424B9B6803F022
:102880000C03042BF2D12DE0022B0ED106E0FDF754
:10289000F7FD801B41F28833984269D8394B9B6819
:1028A00003F00C03082BF2D11CE0032B15D106E03A
:1028B000FDF7E6FD801B41F2883398425AD8314B30
:1028C0009B6803F00C030C2BF2D10BE0FDF7D8FD55
:1028D000801B41F2883398424ED82A4B9B6813F0F4
:1028E0000C0FF3D1264B1B6803F00F039D4207D258
:1028F000EAB2234B1A701B6803F00F039D423DD1CF
:10290000236813F0040F06D01E498B6823F4E052AD
:10291000E36813438B60236813F0080F07D0194A4C
:10292000936823F46043216943EAC1039360FFF78E
:1029300007FF144B9B6803F0F002F02393FAA3F314
:10294000B3FA83F322FA03F30F4AD35CD8400F4B58
:1029500018600020FDF75CFD002070BD012070BDF7
:10296000012070BD012070BD012070BD032070BD2D
:10297000032070BD032070BD032070BD012070BD19
:10298000003C024000380240A87800080C000020FB
:10299000014B1868704700BF0C00002008B5FFF716
:1029A000F7FF084B9B6803F4E0524FF4E05393FAAF
:1029B000A3F3B3FA83F322FA03F3034AD35CD840B8
:1029C00008BD00BF00380240A878000808B5FFF72E
:1029D000DFFF084B9B6803F460424FF4604393FAB7
:1029E000A3F3B3FA83F322FA03F3034AD35CD84088
:1029F00008BD00BF00380240A87800082DE9F84360
:102A0000044601680B6923F44052C36813430B6109
:102A10000068C36823F4164222F00C02A1682369FF
:102A2000194363691943E3690B431343C360216886
:102A30004B6923F44072A36913434B61E369B3F517
:102A4000004F40F0BB80276803F1804303F510433B
:102A50009F4203D003F580639F4257D1FFF7B6FF33
:102A600000EB800000EB800065686D00B0FBF5F5C1
:102A7000AB4EA6FB05356D092D01FFF7A7FF00EB57
:102A8000800000EB800063685B00B0FBF3F9FFF7A8
:102A90009DFF00EB800000EB800063685B00B0FBF3
:102AA000F3F3A6FB03235B094FF0640808FB1393C1
:102AB000DB003233A6FB03235B095B0003F4F873EE
:102AC0001D44FFF783FF00EB800000EB800063688C
:102AD0005B00B0FBF3F9FFF779FF00EB800000EB40
:102AE000800063685B00B0FBF3F3A6FB03235B0984
:102AF00008FB13984FEAC80808F13208A6FB08360D
:102B0000C6F342163544BD60BDE8F883FFF746FFC3
:102B100000EB800000EB800065686D00B0FBF5F510
:102B20007F4EA6FB05356D092D01FFF737FF00EB42
:102B3000800000EB800063685B00B0FBF3F9FFF7F7
:102B40002DFF00EB800000EB800063685B00B0FBB2
:102B5000F3F3A6FB03235B094FF0640808FB139310
:102B6000DB003233A6FB03235B095B0003F4F8733D
:102B70001D44FFF713FF00EB800000EB800063684B
:102B80005B00B0FBF3F9FFF709FF00EB800000EBFF
:102B9000800063685B00B0FBF3F3A6FB03235B09D3
:102BA00008FB13984FEAC80808F13208A6FB08365C
:102BB000C6F342163544BD60BDE8F8832668594B1C
:102BC0009E4203D003F580639E4254D1FFF7FEFE80
:102BD00000EB800000EB80006568AD00B0FBF5F510
:102BE0004F4FA7FB05356D092D01FFF7EFFE00EBF9
:102BF000800000EB800063689B00B0FBF3F8FFF7F8
:102C0000E5FE00EB800000EB800063689B00B0FBFA
:102C1000F3F3A7FB03235B094FF0640909FB13835C
:102C20001B013233A7FB03235B0903F0F0031D44B0
:102C3000FFF7CCFE00EB800000EB800063689B0098
:102C4000B0FBF3F8FFF7C2FE00EB800000EB800062
:102C500063689B00B0FBF3F3A7FB03235B0909FB4D
:102C600013831B013233A7FB0323C3F343131D4418
:102C7000B560BDE8F883FFF791FE00EB800000EB44
:102C800080006568AD00B0FBF5F5254FA7FB053565
:102C90006D092D01FFF782FE00EB800000EB800044
:102CA00063689B00B0FBF3F8FFF778FE00EB800051
:102CB00000EB800063689B00B0FBF3F3A7FB0323EA
:102CC0005B094FF0640909FB13831B013233A7FB37
:102CD00003235B0903F0F0031D44FFF75FFE00EBE5
:102CE000800000EB800063689B00B0FBF3F8FFF707
:102CF00055FE00EB800000EB800063689B00B0FB9A
:102D0000F3F3A7FB03235B0909FB13831B01323396
:102D1000A7FB0323C3F343131D44B560BDE8F88349
:102D20001F85EB51001001402DE9F04105460F468B
:102D300016469846069C1EE0B4F1FF3F1BD02CB10E
:102D4000FDF79EFBC8EB0000844214D22A68D368CA
:102D500023F4D073D3602A68536923F001035361CD
:102D6000202385F8393085F83A30002385F838304B
:102D70000320BDE8F0812B681B6837EA03030CBF12
:102D800001230023B342D7D00020BDE8F08100BF6B
:102D900068B310B5044690F8393013F0FF0F04D132
:102DA000002380F8383001F003FE242384F8393002
:102DB0002268D36823F40053D3602046FFF71EFE39
:102DC0002268136923F4904313612268536923F046
:102DD0002A0353612268D36843F40053D360002070
:102DE000E063202384F8393084F83A3010BD0120A4
:102DF000704700BF2DE9F04182B01E4690F839308F
:102E0000DBB2202B56D104460D469046002953D004
:102E1000002A53D090F83830012B51D0012380F88C
:102E200038300023C363212380F83930FDF728FBB5
:102E30000746A4F82480A4F8268027E0E38C9BB200
:102E4000013B9BB2E384A368B3F5805F12D1009687
:102E50003B46002280212046FFF766FF90BB226898
:102E60002B88C3F30803536023690BB902350DE0C7
:102E700001350BE000963B46002280212046FFF7FB
:102E800053FF08BB23682A785A600135E38C9BB254
:102E9000002BD3D100963B46002240212046FFF76D
:102EA00043FF034690B9202284F83920002284F899
:102EB00038200CE002230AE0012308E0012306E0A9
:102EC000022304E0032302E0032300E00323184667
:102ED00002B0BDE8F08100BFFEE700BF08B50D4BB2
:102EE0001B6813B90C4A0B4B1A600A4B1A68C31CB7
:102EF00023F00303134409498B4206D904F002F876
:102F00000C2303604FF0FF3008BD02490B601046F0
:102F100008BD00BFB40000208C11002000FC01207F
:102F200001230360014B0B60704700BF04000020C9
:102F30000FB400B583B004AB53F8042B0193802188
:102F4000064804F015F9002803DD0146034800F0A7
:102F500039F803B05DF804EB04B07047BC00002002
:102F60002DE9F04385B004460F46435613BB0425B4
:102F700028462146ABBE04461FE03546102E28BF2A
:102F80001025002306E014F9011B04AA1A4402F8D4
:102F9000101C0133AB42F6D304AA1344002203F8F9
:102FA000102CE9464FF0040840464946ABBE804627
:102FB000761B00E00E46002EDFD1384605B0BDE896
:102FC000F08300BF08B5FFF7CBFF08BD08B500F0E0
:102FD00097F8024B024A9A6008BD00BF00ED00E07E
:102FE0000000000808B500F0ABF808BDF8B50446CD
:102FF0000D4617461E462648FFF79AFF21682548CA
:10300000FFF796FF61682448FFF792FFA168234805
:10301000FFF78EFFE1682248FFF78AFF2169214808
:10302000FFF786FF61692048FFF782FFA1691F480B
:10303000FFF77EFFE1691E48FFF77AFF1D48FFF7A3
:1030400077FF29461C48FFF773FF1C4CE16A1C48B8
:10305000FFF76EFF216B1B48FFF76AFFE16B1A4811
:10306000FFF766FF15F0800F03D039461748FFF7CA
:103070005FFF15F4004F03D031461548FFF758FFA6
:103080001448FFF755FF06991348FFF751FFF8BDA5
:10309000B8780008C8780008D8780008E8780008F0
:1030A000F8780008087900081879000828790008DD
:1030B00038790008487900085479000800ED00E0EC
:1030C000647900087479000884790008947900080C
:1030D000A4790008B4790008BC79000883691A88CB
:1030E0008A4207D10268033A012A05D80233836174
:1030F000012070470020704700207047FEE7000065
:103100000C4B1A6842F001021A60002199601A689B
:1031100022F0847222F480321A60074A5A601A68D8
:1031200022F480221A60D9604FF00062034B9A604B
:10313000704700BF003802401030002400ED00E06E
:10314000224B9B6803F00C03042B07D0082B09D0FB
:10315000002B2DD11E4A1F4B1A602CE01E4A1D4B1E
:103160001A6028E0194B5A685B6803F03F0312F4B9
:10317000800F09D0184AB2FBF3F2144B5B68C3F31B
:10318000881303FB02F208E0114AB2FBF3F30F4A83
:103190005168C1F3881101FB03F20C4B5B68C3F368
:1031A000014301335B00B2FBF3F30A4A136002E010
:1031B000074A084B1A60054B9B68C3F30313074A81
:1031C000D15C044A1368CB4013607047003802405A
:1031D0000024F4000C00002040787D01007A0008F3
:1031E00000B585B01348144B03604FF4803343603F
:1031F00000238360036183610362C3620F4A8262BA
:10320000C3600122C26103634261FDF7E9F908B1BD
:1032100000F0F2FB00230093012201920293694621
:103220000448FDF739FB08B100F0E6FB05B05DF896
:1032300004FB00BF600E0020002001400100000FD1
:103240000268124B9A4220D110B586B00024009437
:1032500003F58C335A6C42F480725A645B6C03F44D
:1032600080730093009B032301930293039401A9AD
:103270000748FDF77DFC224621461220FDF7E8FBBA
:103280001220FDF717FC06B010BD7047002001406A
:10329000000002400122014B1A6070473C010020EF
:1032A00008B50448044B0360FDF73AFC08B100F090
:1032B000A3FB08BDA80E0020003002400268094BA5
:1032C0009A420DD182B000230193074B1A6B42F44E
:1032D00080521A631B6B03F480530193019B02B06D
:1032E000704700BF003002400038024030B58BB05C
:1032F00000240194284B1A6B42F004021A631A6BE3
:1033000002F004020192019A02941A6B42F08002C8
:103310001A631A6B02F080020292029A03941A6BEB
:1033200042F001021A631A6B02F001020392039A3F
:1033300004941A6B42F002021A631B6B03F002033F
:103340000493049B154D224620212846FDF7E6FCF8
:103350004FF400530593124B0693079405A91148A7
:10336000FDF706FC0C230593022306930794032321
:1033700008930723099305A92846FDF7F9FB2023A5
:103380000593012306930794089405A92846FDF7A1
:10339000EFFB0BB030BD00BF003802400000024020
:1033A0000000211000080240F8B50F4616461C46E2
:1033B00003F07CFA05462146069803F077FA0146A9
:1033C000284603F07DFB05463946304603F06EFA89
:1033D0000146284603F028FC0146204603F068FA1F
:1033E000F8BD00BF00000000F0B583B04A4B19687B
:1033F000586801F095FD494903F05AFA0446002146
:1034000003F0FCFC50B1204602F0E6FE3EA3D3E9F7
:10341000002302F083FD03F0F5F90446204602F094
:10342000DBFE06460F4638A3D3E9002303F0B8F9C4
:1034300048B135A3D3E900233046394602F06CFD8C
:1034400003F0E0F904463649204603F039FB02F068
:10345000C3FE2FA3D3E9002303F03CF803F0D2F915
:103460000446304B18604FF07E5103F0DBFC70B126
:103470002D49204603F0C2FC48B100212B4B00939C
:103480000B462B4A2046FFF78FFF05460CE02649E6
:10349000204603F0C7FC38B1264A0092204B22494F
:1034A0002046FFF781FF0546284602F095FE01F011
:1034B000E7FC03F07FF9204B186003F0ADFA0546F6
:1034C0001E4B1C681E49204603F0F2F901462846AF
:1034D00003F094FC68B11A49204603F0E7F901466D
:1034E000284603F0A9FC20B1204603F0C5FC124B8E
:1034F0001860114B186803F08FFA104B186003B076
:10350000F0BD00BFAFF30080182D4454FB211940DB
:10351000182D4454FB210940400100200F72853BC7
:10352000000034434C01002000007043000033438E
:1035300000006F430000B4435401002050010020FC
:103540000000404008B50A480A4B03600A4B43603C
:1035500000238360C3604FF4804202614361836152
:10356000C3610362FDF734FF08B100F045FA08BDFE
:10357000C00E002000540040A08601000268194BD4
:103580009A422ED110B586B0C02301931223029324
:103590000123039303230493042305930DEB0301F9
:1035A0001148FDF7E5FA00240094104B1A6C42F420
:1035B00000121A641B6C03F400130093009B224654
:1035C00021461F20FDF744FA1F20FDF773FA22461B
:1035D00021462020FDF73CFA2020FDF76BFA06B0CB
:1035E00010BD704700540040000402400038024003
:1035F00000B583B0094A002313705070084B186857
:1036000040F6FF7300930223C621FDF76FFF0120F0
:10361000FCF73CFF03B05DF804FB00BF580100203D
:10362000B80E002000B583B00B4A002313700323AB
:103630005370013090700131D170084B186840F61A
:10364000FF7300930423C621FDF750FF0120FCF710
:103650001DFF03B05DF804FB58010020B80E0020E8
:1036600070B582B02C4C002323702C4EFF250095A2
:1036700001232246C6213068FDF738FF0220FCF7FF
:1036800005FF3068009503232246C621FDF7EEFFB3
:1036900038BB637813F0010F25D113F0020F24D14A
:1036A00013F0040F23D113F0080F22D113F0100FE1
:1036B00021D113F0200F20D113F0400F1FD113F0B0
:1036C000800F1ED1A37813F0010F1CD113F0020F4D
:1036D0001BD113F0040F1AD113F0080F19D02320B7
:1036E00018E0002016E0312014E0322012E03320F0
:1036F00010E034200EE035200CE036200AE03720C0
:1037000008E0382006E0392004E02A2002E03020DA
:1037100000E0202002B070BD58010020B80E00204B
:1037200000220F4B1A70012303E001300C49CA54E8
:10373000013390F90020002AF7D100B583B0094A7F
:10374000106840F6FF7200929BB2054AC621FDF751
:10375000CDFE0120FCF79AFE03B05DF804FB00BF2C
:1037600058010020B80E002008B50C20FFF740FFDC
:103770000120FFF73DFF384B1B68012B20D0022BA7
:103780003BD0002B56D100210846FFF74BFF3348B2
:10379000FFF7C6FF00210120FFF744FF3048FFF785
:1037A000BFFF00210220FFF73DFF2E48FFF7B8FFC3
:1037B00000210320FFF736FF2B48FFF7B1FF08BDBC
:1037C00000210846FFF72EFF2848FFF7A9FF002138
:1037D0000120FFF727FF2648FFF7A2FF0021022064
:1037E000FFF720FF2348FFF79BFF00210320FFF78F
:1037F00019FF2148FFF794FF08BD00210846FFF795
:1038000011FF1E48FFF78CFF00210120FFF70AFF80
:103810001B48FFF785FF00210220FFF703FF19482F
:10382000FFF77EFF00210320FFF7FCFE1648FFF79D
:1038300077FF08BD00210846FFF7F4FE1348FFF7A5
:103840006FFF05210120FFF7EDFE034B18683030B4
:10385000C0B2FFF7CDFE08BDAC010020107A000811
:103860001C7A0008247A0008307A00083C7A0008A4
:10387000447A00084C7A0008547A0008607A0008FC
:10388000687A0008707A0008787A0008847A00085C
:10389000104B00221A701B225A7080389870032334
:1038A00004E008780B4AD054013301310A2BF8DDCB
:1038B00000B583B0084B186840F6FF7300930B23E4
:1038C000044AC621FDF712FE0120FCF7DFFD03B01C
:1038D0005DF804FB58010020B80E002008B5134B1A
:1038E00018601320FFF784FE1520FFF781FE0C20DF
:1038F000FFF77EFE0420FFF77BFE0420FFF778FE33
:103900000120FFF775FE0A490020FFF7C1FF0949B2
:103910000120FFF7BDFF08490220FFF7B9FF074963
:103920000320FFF7B5FFFFF71FFF08BDB80E00200B
:1039300014000020240000201C0000202C00002087
:1039400010B4401A019CE41A04FB00F0521A90FBD8
:10395000F2F0184410BC7047B0F90420124B1A6002
:10396000B0F90220114B1A608268114B1A608289EB
:10397000104B1A604269104B1A6082695A60C26922
:103980009A60C2890D4B1A60028A0D4B1A60428CF4
:103990000C4B1A60828C0C4B1A60C28C0B4B1A6059
:1039A000028C0B4B1A6070470C020020E0010020D3
:1039B0003C0200203002002040010020E4010020F1
:1039C000FC010020B8010020BC010020C001002043
:1039D000D801002008B5FCF753FD054B1860054BD6
:1039E0001B681BB1034A1368013B136008BD00BF8D
:1039F000D401002038020020FEE700BF00B595B0DA
:103A000000230193264A116C41F080511164126C1D
:103A100002F080520192019A0293224A116841F405
:103A200040411160126802F440420292029A02215F
:103A3000089101220B9210220C920E910F9310927A
:103A40004FF4A873119304231293139308A8FEF75D
:103A500093FC08B1FFF7D0FF0F23039302210491D9
:103A6000002305934FF480520692079303A8FEF7B4
:103A7000B7FE08B1FFF7C0FFFEF78AFF0A4BA3FBB2
:103A800000308009FDF722F80420FDF735F8002208
:103A900011464FF0FF30FCF7DBFF15B05DF804FB7B
:103AA0000038024000700040D34D62102DE9F04F05
:103AB0008DB0FCF7C3FCFFF7A1FFFFF717FCFFF782
:103AC0008FFBFFF73FFD00F03FFF00F057FFFFF7D0
:103AD000E7FB9448FCF7AEFD934C204600F0C6FE91
:103AE000924800F0C3FE204600F0BCFF904C2046F8
:103AF00000F02EFE4FF47A70FCF7C8FC2046FFF76A
:103B0000EDFEFCF7BDFC8B4B186019688A4A11600A
:103B100019688A4A11601968894A11601968894AC6
:103B200011601A68884B1A60824B1B68864A1268BB
:103B30009B1AB3F57A7F07D97E4B1A68824B1A60BD
:103B400020218248FDF7F0F8814B1B6893B9814B27
:103B50001B687BB1012B02D0022B06D00AE0013397
:103B60007C4A136000F0FCFD04E00133794A1360E5
:103B700000F008FE6F4B1B68704A12689B1A322BCC
:103B800070D96C4B1A686D4B1A60FFF72DFCFFF76C
:103B900067FD714B1870714B1B78984262D02338C7
:103BA00015285BD8DFE800F0295A5A5A5A5A5A4960
:103BB0005A5A5A5A5A530B151F5A5A5A3741684B78
:103BC0001B68002B4AD00022654B1A60FFF7CCFD22
:103BD00044E0634B1B68012B40D00122604B1A600C
:103BE000FFF7C2FD3AE05E4B1B68022B36D0022283
:103BF0005B4B1A60FFF7B8FD30E05A4A1368B3FA1E
:103C000083F35B0913604BBB4FF40063564A1360A8
:103C1000564A136022E0544B1B6840F604729342EC
:103C20001CD8FA33504A136018E04F4B1B68F92B2D
:103C300014D9FA3B4C4A136010E04C4B1B6840F619
:103C4000047293420AD8FA33484A136006E0474B9D
:103C50001B68F92B02D9FA3B444A13603E4B1A7891
:103C60003E4B1A70334B1B68334A12689B1AB3F5EC
:103C7000FA7F40F2E4812F4B1A682F4B1A60002321
:103C800005930693ADF81C30354B1B68012B00F0F3
:103C9000A580022B00F02E810A210020FFF7C2FC34
:103CA000334C2368334A82FB0321DA17C2EB6112DB
:103CB000642101FB1233304905A803F009FA05A875
:103CC000FFF72EFD13210020FFF7ACFC226841F224
:103CD00087339A4201DC802000E08120FFF788FCD6
:103CE0000A210120FFF79EFC244C2368214A82FB15
:103CF0000321DA17C2EB6112642101FB1233204960
:103D000005A803F0E5F905A8FFF70AFD1321012036
:103D1000FFF788FC226840F6C3139A4232DC802009
:103D200031E000BF600E0020340F0020740F00202F
:103D3000C00E0020D4010020F4010020B4010020B6
:103D4000C8010020F0010020000200200000024015
:103D5000380200202C02002038000020390000200A
:103D6000AC0100203C000020D0010020F801002020
:103D7000E00100201F85EB51947A00080C0200201E
:103D8000A07A00088120FFF733FC0A210220FFF708
:103D900049FC974B1A68974905A803F099F905A8BB
:103DA000FFF7BEFC13210220FFF73CFC8320FFF746
:103DB0001FFC0A210320FFF735FC8F4B1A688F493F
:103DC00005A803F085F905A8FFF7AAFC1321032035
:103DD000FFF728FC8220FFF70BFC30E1884C894973
:103DE000206802F06DFE03F047F8074685496068D9
:103DF00002F066FE03F040F806468249A06802F031
:103E00005FFE03F039F8054687EAE77BABEBE77B1B
:103E100086EAE67AAAEBE67A80EAE079A9EBE0792D
:103E20000A210020FFF7FEFB774C84FB0B324FEAA0
:103E3000EB73C3EB62134FF0640884FB0721FA179E
:103E4000724F08FB13B3C2EB6112394605A803F0A9
:103E50003FF905A8FFF764FC13210020FFF7E2FB00
:103E60000A210120FFF7DEFB84FB0A324FEAEA73E6
:103E7000C3EB621384FB0612F61708FB13A3C6EB11
:103E80006212394605A803F023F905A8FFF748FC9C
:103E900013210120FFF7C6FB0A210220FFF7C2FB16
:103EA00084FB09324FEAE973C3EB621384FB0524F8
:103EB000EA1708FB1393C2EB6412394605A803F016
:103EC00007F905A8FFF72CFC13210220FFF7AAFB36
:103ED0000A210320FFF7A6FB4D4B1A684D4905A8A0
:103EE00003F0F6F805A8FFF71BFC13210320FFF7EA
:103EF00099FBA4E00A210020FFF794FB464C2368BD
:103F0000464AA2FB031292094FF47A7101FB123365
:103F1000434905A803F0DCF805A8FFF701FC1321CD
:103F20000020FFF77FFB2368B3F5616F01D9802084
:103F300000E08120FFF75CFB0A210120FFF772FB04
:103F4000384C2368354AA2FB031292094FF47A7168
:103F500001FB1233344905A803F0BAF805A8FFF7AE
:103F6000DFFB13210120FFF75DFB2368B3F5616FD1
:103F700001D9802000E08120FFF73AFB0A210220CE
:103F8000FFF750FB294C2368244AA2FB0312920935
:103F90004FF47A7101FB1233234905A803F098F816
:103FA00005A8FFF7BDFB13210220FFF73BFB2368A9
:103FB000B3F5616F01D9802000E08120FFF718FB85
:103FC0000A210320FFF72EFB194B1A68194905A88F
:103FD00003F07EF805A8FFF7A3FB13210320FFF7EA
:103FE00021FB124B1B68B3F57A7F25D2802024E099
:103FF0003C020020AC7A000830020020B47A0008AD
:10400000400100200000C8421F85EB51BC7A000827
:1040100054010020C47A0008B8010020D34D62107A
:10402000D07A0008BC010020DC7A0008C001002022
:10403000D8010020E87A00088120FFF7D9FAA84BC0
:104040001B68A84A12689B1A642B71D9A44B1A6882
:10405000A44B1A60AB238DF81430CD238DF81530A6
:10406000A14B1B68C3F307228DF816208DF817307B
:104070009E4B1B68C3F307228DF818208DF819306A
:104080009B4B1B681A0E8DF81A201A0C8DF81B20FA
:104090001A0A8DF81C208DF81D30964A1368C3F358
:1040A00007238DF81E3013688DF81F30924B1B6864
:1040B000C3F307228DF820208DF821308F4B1B6829
:1040C000C3F307228DF822208DF823308C4B1B6818
:1040D000C3F307228DF824208DF82530894B1B6807
:1040E000C3F307228DF826208DF82730864B1B68F6
:1040F000C3F307228DF828208DF82930834B1B68E5
:10410000C3F307228DF82A208DF82B30804B1B68D3
:10411000C3F307228DF82C208DF82D3055238DF810
:104120002E304FF47A731B2205A97A48FEF762FEFF
:10413000794B1B68002B63D00022774B1A607748BD
:10414000FCF7FCFA764B1B68BBB1012B2FD07549ED
:104150000A6883180B6074490A6801320A60B2F574
:10416000806F06D39B0A714A136000236D4A136067
:104170000B6000226A4B1A6032E06D490A688318AE
:104180000B606C490A6801320A60B2F5806F0AD38D
:10419000694A126812B19B0A684A13600023644A94
:1041A0001360644A136001225D4B1A6018E0644A90
:1041B00013680344136063490A6801320A60B2F568
:1041C000806F0AD35C4A126812B19B0A5E4A136080
:1041D00000235B4A13605B4A13601122504B1A6044
:1041E0004F4B1B6805930123069300230793089305
:1041F0004A4C05A92046FCF74FFB2046FCF71AFA6B
:104200004FF400515148FCF781FD514B1B78984207
:104210000BD00023494A13604B4A13604FF40051FE
:104220004A48FCF773FD4A4B18704A4AB2F800340A
:1042300003F58063B2F802249B1AC3F309033BB170
:10424000454800F051FB18B9434B187800F0E0FCEA
:10425000424AB2F800338033B2F802239B1A13F0BB
:104260007F0F0FD0002302930CA941F81C3D02A838
:1042700000F0E4FD18B90599029800F0DFF8029803
:1042800002F04EFE364AB2F8003403F58063B2F80D
:1042900002249B1AC3F30903002B00F091802E48DF
:1042A00000F03AFB002840F08B802B4B1B78332B1F
:1042B00077D004D8312B64D0322B6AD005E06C2B38
:1042C00008D0722B50D0342B73D020212548FCF716
:1042D0002BFD75E020212348FCF726FD70E000BF90
:1042E000D4010020F0010020E00100200C02002099
:1042F0003C0200203002002054010020E401002094
:10430000FC010020B8010020BC010020C0010020F9
:10431000D8010020740F00203C010020600E002016
:1043200010000020EC0100200802002034000020D2
:10433000CC010020C40100203C000020D00100205E
:10434000E8010020B0010020F80100200008024030
:10435000140F002044060020DC0100204C0A00203D
:104360004002002000000240BFF34F8F2D49CA6871
:1043700002F4E0622C4B1343CB60BFF34F8F00BFBE
:10438000FDE72A4B1B68092B1AD90A3B274A136001
:1043900016E0264B1B68AA2B12D80A33234A136057
:1043A0000EE0234B1B68AA2B0AD80A33204A13605D
:1043B00006E01F4B1B68092B02D90A3B1C4A1360FD
:1043C0001C4B1B681C4A12689B1A642B7FF6ACAB13
:1043D000184B1A68184B1A60144B1868AA240094DA
:1043E0000A2340F6FF720021FFF7AAFAADF80C008D
:1043F0000F4B186800940A2340F6FF720021FFF764
:104400009FFAADF80E00002305930693ADF81C301B
:1044100002A905A800F034F80A2105A800F0F0FB75
:10442000FFF782BB00ED00E00400FA05D001002098
:10443000F8010020D4010020040200202C291ED104
:1044400000B58DB005E001781970114601330130D7
:1044500000E001AB4A1E0029F5D1BDF804204CF65E
:10446000FE239A4208D1BDF82C204BF6BE239A4277
:1044700002D101A8FFF770FA0DB05DF804FB704798
:104480004CF6FE230B804BF6BE230B81002304E089
:104490000A780270013301310130092BF8D97047D5
:1044A0000D4B1B68022B15D100B583B00B4AF423CA
:1044B0001370342353700A4B18684FF47A730093C7
:1044C0000223EE21FDF712F80522064B1A6003B015
:1044D0005DF804FB704700BF2C0200201002002092
:1044E0002C0F002038020020474B1B68032B40F0A4
:1044F000898010B545480388454A12889A1A454B69
:104500001B8803FB02F2D213434BB3F90030D902EC
:10451000424BB3F90030134491FBF3F31A44404B80
:104520001A6002F10804C4F30F140480A2F57A6241
:1045300002FB02F33B49B1F9000003FB00F03A49EA
:10454000B1F9001002FB01F1C91201EBE05137484B
:10455000B0F9000001EB800002303549B1F90010DC
:1045600002FB01F21913334BB3F9003001FB03F3E3
:104570001B1403EB623302339B1003F500422E4BF6
:104580001B8802FB03F3DB0B2C4A1268A2EBA00092
:104590004CF2503202FB00F0002803DB4000B0FB7D
:1045A000F3F302E0B0FBF3F35B00181200FB00F042
:1045B00040F6DE3202FB00F0214A02FB03F2121445
:1045C00002EB204000F6CF6003EB20101D4B1C8057
:1045D0001D4B186002F020FA1C4902F025FB1C4913
:1045E00000F0A0FC01464FF07E5002F05FF919493F
:1045F00002F066FA02F066FC174B18600022024BCC
:104600001A6010BD704700BF2C0200203402002049
:10461000200F0020220F00202A0F0020260F00204C
:1046200020020020180F0020240F00201C0F002063
:10463000300F00201E0F0020280F0020280200202D
:1046400043E3FFFF240200203C02002080E6C54730
:10465000AEDC423E002A2D47300200202DE9F04119
:1046600082B00D461446104E3070DFF840804FF493
:104670007A77009701233246EE21D8F80000FCF744
:1046800035FFD8F800000097A3B23246EE21FCF7C0
:10469000EDFF04E0013C044B1B5D2B700135002C49
:1046A000F8D102B0BDE8F081100200202C0F0020EC
:1046B00008B502221B49AA20FFF7D0FF02221A499F
:1046C000AC20FFF7CBFF02221849AE20FFF7C6FF50
:1046D00002221749B020FFF7C1FF02221549B2207C
:1046E000FFF7BCFF02221449B420FFF7B7FF0222F4
:1046F0001249B620FFF7B2FF02221149B820FFF796
:10470000ADFF02220F49BA20FFF7A8FF02220E498F
:10471000BC20FFF7A3FF02220C49BE20FFF79EFF3B
:1047200008BD00BF1C0F0020240F0020300F002008
:10473000280F0020220F0020200F00201E0F002035
:10474000180F00201A0F00202A0F0020260F00202B
:1047500008B5024B1860FFF7ABFF08BD2C0F002017
:1047600008B5064B1B68022B06D102220449F6202D
:10477000FFF774FFFFF794FE08BD00BF2C02002076
:1047800034020020084B1B68032B0CD110B5074CDA
:1047900003222146F620FFF761FF23681B0A2360EE
:1047A000FFF7A2FE10BD70472C0200202802002057
:1047B00008B50720FCF73AF9002211466FF00B000C
:1047C000FCF746F9002211466FF00A00FCF740F9A9
:1047D000002211466FF00900FCF73AF90022114659
:1047E0006FF00400FCF734F9002211466FF003006B
:1047F000FCF72EF9002211466FF00100FCF728F9B2
:10480000002211464FF0FF30FCF722F908BD00BF2F
:1048100008B5FBF72DFEFCF77FF908BD08B5024887
:10482000FBF794FF08BD00BF600E002008B50248EA
:10483000FDF75CFC08BD00BFC00E002008B50248B3
:10484000FDF704FD08BD00BFC00E002008B50248FA
:1048500000F012F808BD00BF740F002008B5024830
:1048600000F00AF808BD00BF340F00200268D368CA
:1048700043F02003D360704703681A68D96812F0C8
:10488000200F27D011F0200F24D0134A93420FD1CC
:104890001249B1F80004421CC2F30902B1F8021433
:1048A0008A4217D059680D4B1954A3F80024704759
:1048B0000B4A93420ED10B49B1F80004421CC2F3DB
:1048C0000902B1F802148A4204D05968054B195400
:1048D000A3F80024704700BF0014014044060020E4
:1048E00000440040400200200A4BB3F80024B3F813
:1048F00002349A420BD0074AD3560370B2F80234FE
:104900000133C3F30903A2F80234002070474FF4C7
:1049100080707047440600200A4BB3F80024B3F8B7
:1049200002349A420BD0074AD3560370B2F80234CD
:104930000133C3F30903A2F80234002070474FF497
:10494000807070474002002008B50A480A4B036097
:104950004FF4E133436000238360C36003610C22A2
:1049600042618361C361FEF713FA08B1FFF744F8AF
:1049700008BD00BF740F00200044004008B50A487D
:104980000A4B03604FF4E133436000238360C3604C
:1049900003610C2242618361C361FEF7F9F908B13A
:1049A000FFF72AF808BD00BF340F002000140140B3
:1049B00010B588B00368264A934222D1002401949E
:1049C000244B1A6C42F400321A641B6C03F400335B
:1049D0000193019B0C23039302230493012305936A
:1049E000032306930723079303A91B48FCF7C0F88A
:1049F000224621462620FCF72BF82620FCF75AF801
:104A000024E0164A934221D100240294114B5A6C9F
:104A100042F020025A645B6C03F020030293029B75
:104A2000C0230393022304930123059303230693D6
:104A30000823079303A90A48FCF79AF8224621465F
:104A40004720FCF705F84720FCF734F808B010BD04
:104A500000440040003802400000024000140140C1
:104A600000080240014B1860704700BFE00F0020B3
:104A70000322002104E0074B1B6A9B5C19440132AE
:104A8000044B5B6A013B9A42F5D3024A126AC9435E
:104A9000D1547047B80F002008B5274A93690E33E8
:104AA0009BB213801A1DFF2A44DC234B5A621A6AF8
:104AB0007E2111701A6A597851701A6A19789170AA
:104AC0001A6A9978D1701A6AD97811711A6AD97BE1
:104AD00051711A6A997B91711A6A597BD1711A6A5C
:104AE000197B11721A6AD97A51721A6A997A91727B
:104AF0001A6A597AD1721A6A197A11731A6A597C28
:104B000051731A6A197C91731A6A997CD1731A6A63
:104B1000DB7C1374002307E0074A106A03F11101DC
:104B20005269D25C42540133034A92699342F3D3EF
:104B3000FFF79EFF08BD00BFB80F002010B5C0B042
:104B4000FF220021684602F0FEF91A4B5A6A1B6ADE
:104B50001B788DF8003001230DEB03041BE0154991
:104B6000096AC85CA0F17D01C9B2012903D91128E5
:104B700001D013280CD121467D2001F8020B0D48ED
:104B8000006AC05C80F02000607001320C4601E0D9
:104B90002070013401330749496A8B42DFD34FF655
:104BA000FF7392B2694604480068FEF723F940B0EB
:104BB00010BD00BFB80F0020E00F00200000000073
:104BC00030B40D4B10229A700022DA7008A5D5E996
:104BD0000045C3E902454FF6FE741C829A74DA74EC
:104BE00058619961054919625A6230BC704700BF2B
:104BF0007ED0B94000A21300B80F0020500D002055
:104C000008B5FFF7DDFFFFF747FFFFF797FF08BD88
:104C10007E2803D10122824B1A7070477D2803D170
:104C20000122804B1A7070477E4B1B7823B1002203
:104C30007C4B1A7080F02000794B1B78112B00F20E
:104C4000EE80DFE813F0120019001F00250033008A
:104C50003D00470051005B0065006F007900830054
:104C60008D009700A800A800BC007E2840F0D780E7
:104C700001226B4B1A7070476B4B58700222684BC5
:104C80001A707047684B18700322654B1A70704792
:104C9000654B9870654B1870902803D10422604BC7
:104CA0001A70704700225E4B1A7070475E4BD873C3
:104CB0005E4A1378184410700522594B1A707047D9
:104CC000594B9873594A1378184410700622544B64
:104CD0001A707047544B5873544A13781844107024
:104CE00007224F4B1A7070474F4B18734F4A137877
:104CF0001844107008224A4B1A7070474A4BD872F9
:104D00004A4A1378184410700922454B1A707047AC
:104D1000454B9872454A1378184410700A22404B4C
:104D20001A707047404B5872404A137818441070FC
:104D30000B223B4B1A7070473B4B18723B4A13785F
:104D4000184410700C22364B1A707047364B58744A
:104D5000364A1378184410700D22314B1A70704780
:104D6000314B1874314A1378184410700E222C4BB2
:104D70001A7070472C4A90742C490B7818440870AC
:104D80000F21274B19700021294B197013880C3BF8
:104D9000284A1370704726490A78531CDBB20B70FF
:104DA00021490A44D07421490A7810440870214AE4
:104DB0001278934233D11122194B1A7070471B4B52
:104DC0001B78DB43DBB2984226D110B5184B18781C
:104DD00002F09EF8002304E0134A1A44D27CC25425
:104DE0000133134A12789342F6DB134CB4F80033C4
:104DF000591C01F07F01B4F80243A14208D00E4CC7
:104E000044F8230003F5807324F81320A4F800135A
:104E10000022034B1A7010BD0022014B1A7070471C
:104E20004A0A0020480A0020E80F0020490A002012
:104E30004B0A00204F0E00204C0A002010B40F4BEC
:104E4000B3F80043B3F80223944212D053F822205F
:104E50000260B3F8022302F5807233F812200A6070
:104E6000B3F80223013202F07F02A3F802230020EC
:104E700001E04FF4807010BC704700BF4C0A002066
:104E8000F8B5C1F30A56A6F2FF35132D0A460B46B4
:104E90000446864611DC002D2EDB0F461F492941B2
:104EA0000A4225D04FF400232B413B4423EA01035F
:104EB0000026194634462046F8BD332D05DDB5F5EC
:104EC000806F1FD011462046F8BDA6F213464FF062
:104ED000FF3121FA06F63042F4D00122C5F1330544
:104EE00002FA05F52D1828BF9B1825EA0606E0E70B
:104EF0000028D7D11146E6E7013501F0004307D07D
:104F00000026D6E702460B4601F008F80446D2E731
:104F100043F07F5343F440130026CAE7FFFF0F001E
:104F200000F07AB92DE9F047DFF8E8828AB006464A
:104F30000D4600F003FA98F900707B1C04463FD040
:104F40002946284601F082FF8246002838D13146A2
:104F5000304601F07BFF00218146002840F096801A
:104F6000304601F041FF00282ED00021284601F0F4
:104F70003BFF8246D0B1A14BCDF8209001223046B4
:104F80008DE80C0001F028F9CDE90201284601F076
:104F900023F900220023CDE90401CDE90623002FE7
:104FA00062D04FF07E500AB0BDE8F087284600F08E
:104FB00045FF28B10021284601F020FF00283AD102
:104FC00020460AB0BDE8F087204600F037FF0746CC
:104FD000002877D00021204601F006FF0028EFD0FE
:104FE000304600F02BFF0028EAD0284600F026FFCC
:104FF0000028E5D00423814A00933046002308931B
:10500000019201F0E9F8CDE90201284601F0E4F847
:1050100098F9003000240025022BCDE90401CDE9E8
:10502000064503D0684600F061FD10BB01F06AFF41
:10503000222303601DE0714BCDF820A001223046F1
:105040008DE80C0001F0C8F8CDE90201284601F016
:10505000C3F898F90030CDE90401002B40F08D80B1
:1050600000220023CDE90623684600F03FFD00281A
:105070007ED0089B1BB101F045FF089B0360DDE972
:10508000060101F0BFFB0AB0BDE8F087284601F039
:10509000ABFE002894D0594BCDF820A00122304619
:1050A0008DE80C0001F098F8CDE90201284601F0E6
:1050B00093F8534B0022022FCDE90401CDE90623DA
:1050C000D2D16EE7304600F0B9FE002882D02846E3
:1050D00000F0B4FE00283FF47DAF2146204601F0E9
:1050E000B5FE002872D1454B0890032230468DE86A
:1050F0000C0001F071F8CDE90201284601F06CF8CE
:1051000098F90040CDE904013046002C3CD13D4BDC
:105110004FF060420021CDE9062301F06FFE002828
:1051200080D028464FF07C5101F0CAFC01F054F8C1
:1051300004460D4600F0DCFC02460B46204629469C
:1051400001F006FB00283ED12F4B98F900404FF0AC
:105150006042CDE90623022C7FF464AF66E7104677
:10516000194601F0B7F9022CCDE906017FF47CAFB6
:1051700001F0C8FE212303607BE724490020022BB5
:10518000CDE90601F4D06FE7214B00220021CDE9E3
:10519000062301F033FE0028DDD028464FF07C5175
:1051A00001F08EFC01F018F804460D4600F0A0FC5A
:1051B00002460B462046294601F0CAFA18B9134B9D
:1051C0000022CDE9062398F90040C4E70B4B08976D
:1051D000012230468DE80C0000F0FEFFCDE902010F
:1051E000284600F0F9FF98F90040CDE904010022BB
:1051F0000023002CB3D1CDE9062335E7F07A00086F
:105200000000F03FFFFFEF47FFFFEFC70000F0FF98
:105210000000F07F40000020F8B50C4621F000416E
:10522000B1F1FF4F034614DC20F00046B6F1FF4F0A
:1052300007460EDCB4F17E5F3DD0A51705F00205F0
:1052400045EAD07556B9022D31D0032D2CD1324804
:10525000F8BD1946204601F02BFBF8BD01B3B1F1B2
:10526000FF4F2CD0B6F1FF4F1AD0711AC9153C2947
:105270001BDC002C39DB2146184601F0D5FC00F080
:10528000D9FD00F0C1FC012D2CD0022D22D0002D23
:105290002FD0224901F00CFB214901F007FBF8BD9A
:1052A000002F06DB1F48F8BDF8BD1E48EBE71C4881
:1052B000F8BD1D48F8BDBDE8F84000F0A5BCB6F14A
:1052C000FF4F17D0022DF2D0032DC0D0012D19D0E1
:1052D0000020F8BD114901F0EBFA0146104801F039
:1052E000E5FAF8BD00F10040F8BD3C31C3DA00201A
:1052F000C9E7F8BD022D0CD0032D08D0012D04D034
:105300000A48F8BD4FF00040F8BD0948F8BD09480B
:10531000F8BD0948F8BD00BFDB0F49C02EBDBB3347
:10532000DB0F4940DB0FC93FDB0FC9BFDB0F493F34
:10533000DB0F49BFE4CB16C0E4CB16402DE9F04F9C
:1053400031F0004887B011D020F00049B9F1FF4F8B
:10535000824605DD514807B0BDE8F04F00F076BD4C
:10536000B8F1FF4F07DDB9F17E5FF3D14FF07E500A
:1053700007B0BDE8F08F00280C464ADB0025B8F1E5
:10538000FF4F3ED0B8F17E5F07460E4654D0B4F1D1
:10539000804F6BD0B4F17C5F1DD000F04BFDB9F1B4
:1053A000FF4F51D0B9F1000F4ED0B9F17E5F4BD015
:1053B0004FEADA7A0AF1FF3255EA020366D0B8F111
:1053C0009A4F6FDD364B994500F36182002CC0F295
:1053D00064820020CCE7BAF1000F4BDA00F02AFD1E
:1053E000B9F1FF4F02D0B9F1000FDED1A9F17E591A
:1053F00059EA050343D0012DBAD100F10041084616
:10540000B6E7B9F17E5FB1D02BDD002CE1DB0846B9
:10541000AEE7B8F1974F22DAB8F17E5F0ADB4FEAC8
:10542000E853C3F1960348FA03F202FA03F39845EE
:1054300000F028820025A5E7002C99DA01464FF0FC
:105440007E5001F0F1FB93E7002C04DA01464FF0A7
:105450007E5001F0E9FBBAF1000F89DAC6E70225B8
:105460008DE7002CB5DA01F1004081E7014601F03B
:1054700027FB7DE707B0BDE8F04F00F0E3BA014637
:1054800001F014FA014601F0CFFB71E739463846C6
:1054900001F00CFA014601F0C7FB69E7D478000877
:1054A000F7FF7F3FB9F5000F80F204824FF097417C
:1054B000009201F005FB009A81466FF017014FEA58
:1054C000E953B448C9F316097F3B0B44814519469B
:1054D000009349F07E5740F3E581AF4B994540F387
:1054E0003D820023184603930B46013300930023AB
:1054F0004FF07E5AA7F500070290019351463846B7
:10550000059201F0D3F951468346384601F0D0F9AF
:1055100001464FF07E5001F087FB0146049058464B
:1055200001F0CEFA7910019B41F00051B94601F526
:10553000802120F47F670B4427F00F07194680462F
:105540003846019301F0BCFA0146584601F0AEF925
:1055500051468346019801F0A9F90146484601F0F9
:10556000A5F9394601F0ACFA0146584601F09EF91A
:10557000049B194601F0A4FA41468346404601F0D7
:105580009FFA8649814601F09BFA854901F090F91E
:10559000494601F095FA834901F08AF9494601F03C
:1055A0008FFA814901F084F9494601F089FA7F496F
:1055B00001F07EF9494601F083FA7D4901F078F95E
:1055C00049468246484601F07BFA0146504601F0C2
:1055D00077FA39468146404601F06AF9594601F0AA
:1055E0006FFA494601F064F939468246384601F0BF
:1055F00067FA7049019001F05BF9514601F058F9E2
:1056000020F47F6929F00F094946384601F058FA1D
:1056100068490746484601F049F9019B194601F0DF
:1056200045F90146504601F041F9414601F048FA7A
:1056300049468046584601F043FA0146404601F08B
:1056400037F982460146384601F032F920F47F6985
:1056500029F00F094846584901F032FA3946804688
:10566000484601F023F90146504601F01FF953491D
:1056700001F026FA52490746484601F021FA014650
:10568000384601F015F9029901F012F90746009821
:1056900001F0C2F939468146404601F009F9DDF8CA
:1056A0000CB0594601F004F9494601F001F920F423
:1056B0007F6A2AF00F0A4946504601F0F7F859462A
:1056C00001F0F4F8414601F0F1F80146384601F0E6
:1056D000EDF8059A804624F47F6424F00F04013D20
:1056E00055EA02032146304614BF4FF07E57354F2E
:1056F00001F0DCF8514601F0E3F931460546404639
:1057000001F0DEF90146284601F0D2F821460646AE
:10571000504601F0D5F980460146304601F0C8F800
:1057200000288146044620F00045C24640F300812F
:10573000B5F1864F00F3CE8000F0BE80B5F17C5FFE
:1057400000F3D0800025A94624F47F6424F00F04E0
:1057500020461D4901F0B4F951468046204601F02B
:10576000A5F80146304601F0A1F8184901F0A8F962
:1057700017490646204601F0A3F90146304601F0DC
:1057800097F806460146404601F092F84146044625
:1057900020E000BF71C41C00D6B35D0042F1533E4F
:1057A00055326C3E05A38B3EABAAAA3EB76DDB3EDD
:1057B0009A99193F000040400038763F4F38763FB5
:1057C000A0C39D36000080BF0072313F1872313F88
:1057D0008CBEBF3501F06AF80146304601F066F82C
:1057E00021468046204601F06BF98549064601F0C6
:1057F00067F9844901F05AF8314601F061F98249AC
:1058000001F056F8314601F05BF9804901F04EF89D
:10581000314601F055F97E4901F04AF8314601F070
:105820004FF90146204601F041F806460146204660
:1058300001F046F94FF080418246304601F036F8DB
:105840000146504601F0F0F941460646204601F077
:1058500037F9414601F02CF80146304601F026F8B0
:10586000214601F023F801464FF07E5001F01EF86A
:105870004319B3F5000FC0F2BF801846394601F056
:105880001FF975E502F00102C2F102057AE5614BEC
:1058900099456DDD002C7FF79CAD5F49084601F00E
:1058A0000FF965E500230393029300234FF07E5A1E
:1058B000019323E6002102E65849304600F0F8FF44
:1058C00041468246484600F0F1FF0146504601F04D
:1058D000B3FA38B13846504901F0F2F84E4901F0B8
:1058E000EFF845E5ED154FF400037E3D43FA05F56D
:1058F0002B19C3F3C7524A49C3F316097F3A114122
:1059000049F40009C2F1170249FA02F9002C23EA0E
:1059100001014046B8BFC9F1000900F0C7FF0146C8
:105920008246304600F0C4FF4FEAC95504460BE7F3
:105930003C4B9D420ADC7FF401AF414600F0B6FFCC
:105940000146304601F064FA0028CBD0384636498B
:1059500001F0B6F8344901F0B3F809E5334B03938D
:10596000334B02934FF400134FF07F5A0193C5E578
:105970004FF07E51009200F099FF2E49074601F04A
:105980009FF82D498046384601F09AF84FF07A5139
:105990008146384601F094F80146284800F086FF19
:1059A000394601F08DF801464FF07C5000F07EFF43
:1059B00039468246384601F083F80146504601F0E8
:1059C0007FF81F4901F07CF80146484600F06EFF61
:1059D00001460746404600F06BFF20F47F6A2AF03C
:1059E0000F0A4146504600F061FF0146384600F07C
:1059F0005DFF009A80466EE6494600F02BFA3DE7CF
:105A00004CBB31330EEADD3555B38A38610B363B7A
:105A1000ABAA2A3E0700803FCAF249713CAA38333C
:105A2000FFFF7F00000016436042A20D00C0153F3B
:105A3000DCCFD13500AAB83F70A5EC36ABAAAA3EA0
:105A40003BAAB83F20F00042B2F1FF4F70B50446C8
:105A50002ED262B3002803463DDBB2F5000F4FEAB9
:105A6000E0502CD37F38C3F31603C20743F400037E
:105A700048BF5B00002640105B00314619244FF000
:105A800080728D189D4202DC5B1BA9181644013CF4
:105A90004FEA43034FEA5202F3D113B106F0010378
:105AA0001E44761006F17C5606EBC05070BD70BDEA
:105AB000014601F005F8214600F0FAFE70BD14F42D
:105AC000000201D00EE00A465B001C0202F1010157
:105AD000F9D5801AC6E7014600F0E8FE014601F05C
