:020000040800F2
:1000000000000220AD020008B5020008B902000895
:100010002D030008310300087903000800000000E8
:10002000000000000000000000000000C103000804
:10003000C503000800000000C9030008BD51000806
:10004000F9380008F9380008F9380008F9380008CC
:10005000F9380008F9380008F9380008F9380008BC
:10006000F9380008F9380008F9380008F9380008AC
:10007000F9380008F9380008F9380008F93800089C
:10008000F9380008F9380008C951000800000000DC
:10009000000000000000000000000000F938000827
:1000A000F9380008F9380008F9380008F93800086C
:1000B000F9380008F9380008F9380008D951000863
:1000C000E9510008F9380008F9380008F938000843
:1000D000F9510008F9380008095200080000000032
:1000E000F9380008F9380008F93800080000000065
:1000F000000000000000000000000000F9380008C7
:1001000000000000F9380008F9380008F938000844
:1001100000000000000000000000000000000000DF
:10012000F9380008F9380008F9380008F9380008EB
:10013000F938000800000000000000000000000086
:10014000000000000000000000000000F938000876
:10015000F9380008F9380008F93800081952000881
:10016000F9380008F938000800000000000000001D
:10017000000000000000000000000000000000007F
:1001800000000000F9380008000000000000000036
:10019000F9380008F938000800B583B003F014FB03
:1001A000304B314A1360314A1360314B314A03E01E
:1001B00011681960043304322F498B42F8D32A4B5B
:1001C0001A682E4B9A4204D1284B1A682C4B9A423B
:1001D00000D0FEE7234B2B4A13602B4A13602B4BB6
:1001E00002E000221A600433294A9342F9D3254BD6
:1001F0001B6813B9244B1B6803B1FEE703F0F0FA48
:10020000694601A803F08AFA224C234B1C1BA41058
:10021000002504E01F4B53F8253098470135AC42C8
:10022000F8DC1E4C1E4B1C1BA410002504E01B4BCD
:1002300053F8253098470135AC42F8DC0099019815
:1002400004F022F80546174C174B1C1BA41004E0C1
:10025000013C144B53F824309847002CF8DC284616
:1002600003F038FABABADECA00000020800000208D
:100270000000002094850008840000207856341285
:100280003254769888000020E00D0020880000207D
:10029000E40D00200404000804040008040400081D
:1002A00004040008040400080404000808B5FFF76B
:1002B00073FF00BF00BEFEE71EF0040F0CBFEFF39C
:1002C0000880EFF309807146414A10472DE9F0415B
:1002D00082B004468846134B5E6B9F6B9D6A1B6B16
:1002E00013F0020F0DD00F4BDB6A002B09DA4BF62F
:1002F000AB6103F0F1FA20B14FF00042094BDA6232
:100300000CE0094803F012FACDF800803B46324673
:100310002946204603F068FA00BEFEE702B0BDE8B9
:10032000F08100BF00ED00E0E484000800BEFEE7BD
:100330001EF0040F0CBFEFF30880EFF30980714645
:10034000244A10472DE9F04182B004468846084B04
:100350005E6B9F6B9D6A074803F0E8F9CDF800805B
:100360003B4632462946204603F03EFA00BEFEE7F1
:1003700000ED00E0F48400081EF0040F0CBFEFF362
:100380000880EFF309807146134A10472DE9F041C8
:1003900082B004468846084B5E6B9F6B9D6A074897
:1003A00003F0C4F9CDF800803B463246294620468A
:1003B00003F01AFA00BEFEE700ED00E00085000839
:1003C00000BEFEE700BEFEE700BEFEE7704700008D
:0C03D000CD020008450300088D03000862
:1003DC00948500080000002084000020948500080B
:1003EC00000000100000001088000020E40D002028
:0803FC000000001000000010D9
:1004100010B50446074B1B680748A0FB0330800952
:1004200000F046FB002221464FF0FF3000F002FBB7
:10043000002010BD0C000020D34D621008B50B4BFE
:100440001A6842F400721A601A6842F480621A60F4
:100450001A6842F480721A60032000F0D9FA002072
:10046000FFF7D6FF04F07AFE002008BD003C0240F2
:10047000024A136801331360704700BFE40900208B
:10048000014B1868704700BFE40900204B4B5A68C5
:1004900022F440325A60596842680A435A6002683E
:1004A000536823F48073536002685368016943EA18
:1004B000012353600268536823F04073536002685D
:1004C000516883680B4353600268936823F40063A8
:1004D000936002689168C3680B439360826A384BEB
:1004E0009A4214D00268936823F0706393600268A4
:1004F0009168836A0B4393600268936823F04053CA
:10050000936002689168C36A0B43936009E00268D4
:10051000936823F0706393600268936823F04053FC
:1005200093600268936823F0020393600268936803
:10053000816943EA41039360036ABBB1026853686F
:1005400043F4006353600268536823F460435360CC
:10055000436A013B4FF4604292FAA2F2B2FA82F28D
:10056000934001684A6813434B6004E00268536893
:1005700023F4006353600268D36A23F47003D362E8
:100580000168CA6AC369013B42EA0353CB6202684D
:10059000936823F40073936002689368016B43EAE5
:1005A000412393600268936823F480639360026838
:1005B0009368416943EA81239360704700230140B7
:1005C0000100000F28B310B50446036C23B943643F
:1005D00080F83C3003F032FA236C13F0100F13D183
:1005E000236C23F4885323F0020343F002032364B3
:1005F0002046FFF74BFF00206064236C23F00303C9
:1006000043F00103236400E00120002384F83C3020
:1006100010BD0120704700BF82B00023019390F805
:100620003C30012B68D0012380F83C3003689A6885
:1006300012F0010F13D19A6842F001029A60344B14
:100640001B68344AA2FB03239B0C03EB4303019377
:1006500002E0019B013B0193019B002BF9D1026851
:10066000936813F0010F49D0036C23F4E06323F087
:10067000010343F480730364536813F4806F05D05F
:10068000036C23F4405343F480530364036C13F46A
:10069000805F04D0436C23F00603436401E0002331
:1006A0004364002380F83C306FF02203136002683B
:1006B000536843F0806343F020035360164B5B683C
:1006C00013F01F0F0AD103689A6812F0405F17D128
:1006D0009A6842F080429A60002016E003680F4A50
:1006E00093420FD19A6812F0405F0DD19A6842F0A0
:1006F00080429A60002008E0022006E0002004E02A
:10070000002002E0002000E0002002B0704700BF9F
:100710000C00002083DE1B43002301400020014029
:100720000368D86C704700BF704700BF704700BFB8
:1007300038B5044602681168536811F0020F2FD0D3
:1007400003F0200363B3036C13F0100F03D1036CA9
:1007500043F400730364936813F0405F19D1A369F5
:10076000BBB9D36A13F4700F03D0936813F4806F8E
:100770000FD1536823F020035360236C23F480735C
:100780002364236C13F4805F03D1236C43F00103D3
:100790002364204603F090F923686FF012021A6078
:1007A000236819685A6802F0800211F0040F36D0ED
:1007B000002A34D0226C12F0100F03D1226C42F4C4
:1007C000005222649A6812F4401F21D19A6B12F4ED
:1007D000401F03D09A6812F4806F19D15A6812F43E
:1007E000806F15D19A6812F0405F11D1A2697AB971
:1007F0005A6822F080025A60236C23F480532364E9
:10080000236C13F4807F03D1236C43F00103236432
:10081000204600F0FBF823686FF00C021A60226893
:100820001168536803F0400311F0010F0FD073B14A
:10083000136813F0010F0AD0236C43F48033236450
:100840002046FFF771FF23686FF001021A602268EB
:100850001168536803F0806311F0200F0CD05BB176
:10086000636C43F0020363646FF02005156020465B
:10087000FFF75CFF23681D6038BD00BF30B482B055
:100880000023019390F83C30012B00F0B08001234D
:1008900080F83C300B68092B17D90568EA689BB2D1
:1008A00003EB43031E3B072404FA03F322EA03038A
:1008B000EB600468E5688A680B8803EB43031E3B22
:1008C00002FA03F32B43E36013E005682A699BB245
:1008D00003EB4303072404FA03F322EA03032B6127
:1008E000046825698B680A8802EB420293402B4317
:1008F00023614B68062B16D805686A6B03EB8303EC
:10090000053B1F2404FA03F322EA03036B63046824
:10091000656B4B6803EB8303053B0A8802FA03F31C
:100920002B4363632EE00C2B16D805682A6B03EB70
:100930008303233B1F2404FA03F322EA03032B63FC
:100940000468256B4B6803EB8303233B0A8802FA98
:1009500003F32B43236315E00568EA6A03EB830383
:10096000413B1F2404FA03F322EA0303EB62046809
:10097000E56A4B6803EB8303413B0A8802FA03F301
:100980002B43E36202681C4B9A4207D10B68122B7F
:1009900004D11A4A536843F4800353600268164B2B
:1009A0009A421FD10B68164A934201D0112B19D1DC
:1009B000124A536843F4000353600A68104B9A428A
:1009C00010D1104B1B68104AA2FB03239B0C03EBB6
:1009D00083035A00019202E0019B013B0193019BBA
:1009E000002BF9D1002380F83C30184600E00220AB
:1009F00002B030BC704700BF00200140002301401E
:100A0000120000100C00002083DE1B43704700BF63
:100A1000074AD36823F4E0631B041B0C000200F4B4
:100A2000E060184340F0BF6040F40030D060704791
:100A300000ED00E030B4164BDB68C3F30223C3F1D2
:100A40000704042C28BF04241D1D062D01D9DD1E1A
:100A500000E00025012303FA04F4013C2140A940F1
:100A6000AB40013B1A400A43002806DA00F00F00B1
:100A70001201D2B2074B1A5407E01201D2B200F1B0
:100A8000604000F5614080F8002330BC704700BF33
:100A900000ED00E014ED00E0420900F01F0001232A
:100AA00003FA00F0014B43F82200704700E100E038
:100AB0000138B0F1807F0AD2064B5860F021064A17
:100AC00082F823100020986007221A6070470120E6
:100AD000704700BF10E000E000ED00E0042805D101
:100AE000054A136843F0040313607047024A136811
:100AF00023F004031360704710E000E008B503F032
:100B000057FB08BD78B110B50446437913F0FF0FC9
:100B100003D10023037102F0E3FF02236371012379
:100B20006371002010BD0120704700BF90F8353080
:100B3000DBB2022B03D080234365012070470523DD
:100B400080F835300268136823F001031360002039
:100B5000704700BFF0B583B00024BBE00123A34081
:100B60000A6803EA0205AB4240F0B3804A68022AF1
:100B700001D0122A10D1E608083650F826C004F039
:100B8000070297000F22BA402CEA020E0A69BA4007
:100B90004EEA020240F82620026867000326BE40A3
:100BA000F64302EA060E4A6802F00302BA404EEA31
:100BB000020202604A6802F1FF3EBEF1010F03D952
:100BC000112A01D0122A10D1826806EA020ECA68E0
:100BD000BA404EEA02028260426822EA03034A688F
:100BE000C2F30012A2401A434260C3681E408B68E1
:100BF000BB403343C3604B6813F0805F69D0002370
:100C00000193374B5A6C42F480425A645B6C03F494
:100C100080430193019BA608B21C324B53F822205B
:100C200004F003039B000F279F4022EA07072E4A88
:100C3000904211D002F5806290420FD002F580629E
:100C400090420DD002F5806290420BD002F5806296
:100C5000904209D1042208E0002206E0012204E0CB
:100C6000022202E0032200E0072202FA03F33B43E0
:100C700002361C4A42F826301C4B1A68EB4302EA43
:100C800003064F6817F4803F01D045EA0206174A71
:100C90001660526803EA02064F6817F4003F01D05D
:100CA00045EA0206114A5660926803EA02064F6856
:100CB00017F4801F01D045EA02060C4A9660D268FC
:100CC00013404E6816F4001F01D045EA0203074A9C
:100CD000D36001340F2C7FF641AF03B0F0BD00BFED
:100CE000003802400038014000000240003C014052
:100CF0000AB18161704709048161704743695940B5
:100D00004161704790F83E30DBB2402B0ED1036D4D
:100D10002BB90268436C03F0FE03136132E00268F2
:100D2000436C43F00103DBB213612BE00369B3F5BD
:100D3000804F11D190F83D30DBB2212B05D10268F4
:100D4000436C03F0FE0313611CE00268436C43F044
:100D50000103DBB2136115E0036D43B90268436C14
:100D6000DB1103F0060343F0F00313610AE0036DA7
:100D7000012B07D10268436CDB1103F0060343F03B
:100D8000F1031361002070470268436CDBB213610A
:100D90000020704710B48BB090F83E30DAB2C16AD0
:100DA000046B90F83D30DBB2222B40F0CC80036D19
:100DB0004BB9402A07D1009303685A6900929B6996
:100DC0000093009BC7E0036D9BB90369B3F5404FE7
:100DD0000FD10023019303685A6901929A69019225
:100DE000019A1A6842F480721A60036D0133036538
:100DF000B1E0438D9BB25BB9029303685A690292DA
:100E00009A690292029A1A6842F400721A6097E094
:100E1000438D9BB2012B54D111F5803F22D1026842
:100E2000136823F48063136003685A6812F4006F38
:100E30000CD01A6822F480621A60002303930368BE
:100E40005A6903929B690393039B79E00022049201
:100E50005A6904929A690492049A1A6842F40072D8
:100E60001A606DE004291AD0082918D0122C16D067
:100E7000C36A022B05D00268136823F480631360F1
:100E800004E00268136843F4806313600023059351
:100E900003685A6905929B690593059B50E00268B7
:100EA000136823F4806313600023069303685A6970
:100EB00006929A690692069A1A6842F400721A60BB
:100EC0003EE0438D9BB2022B24D1C36A022B0AD091
:100ED0000268136823F4806313600268136843F4A4
:100EE0000063136004E00268136843F480631360D6
:100EF00003685A6812F4006F03D05A6842F48052B3
:100F00005A600023079303685A6907929B69079305
:100F1000079B15E00268136843F48063136003685D
:100F20005A6812F4006F03D05A6842F480525A6033
:100F30000023089303685A6908929B690893089BE9
:100F40000023036507E00023099303685A690992A7
:100F50009B690993099B00200BB010BC704700BF30
:100F6000438D9BB253B10268436A591C41621B789E
:100F70001361438D9BB2013B9BB2438500207047B8
:100F8000438D9BB253B1436A5A1C42620268126994
:100F90001A70438D9BB2013B9BB243850020704782
:100FA00003685A6912F4806F0DD06FF480625A6141
:100FB0000423036400230363202280F83D2080F88B
:100FC0003C30012070470020704700BFF8B506464E
:100FD0000C4617461D4614E0B5F1FF3F11D02DB168
:100FE000FFF74EFA069BC01A85420AD200233363EC
:100FF000202286F83D2086F83E3086F83C300320DB
:10100000F8BDC4F30743012B08D133685B6924EAB8
:1010100003039BB2B3FA83F35B0907E033689B6970
:1010200024EA03039BB2B3FA83F35B09BB42D3D038
:101030000020F8BDF8B504460D4616461F4629E0C7
:1010400023685A6912F4806F12D01A6842F4007251
:101050001A6023686FF480625A61042323640023BA
:101060002363202284F83D2084F83C300120F8BD21
:10107000B6F1FF3F0ED026B1FFF702FAC01B864241
:1010800008D200232363202284F83D2084F83C30DA
:101090000320F8BDC5F30743012B08D123685B6922
:1010A00025EA03039BB2003318BF012307E023683E
:1010B0009B6925EA03039BB2003318BF0123002B71
:1010C000BED10020F8BD00BFF0B583B004460F4686
:1010D00015461E46C36A042B04D0012B02D013F51B
:1010E000803F05D12268136843F48073136007E0E2
:1010F000036B122B04D10268136843F480731360EE
:1011000000962B4600224FF001112046FFF75EFFAC
:1011100058BB2369B3F5804F04D1236807F0FE075D
:101120001F6115E02268FB1103F0060343F0F00392
:10113000136133462A4611492046FFF77BFF20B151
:10114000236C042B13D1012314E02368FFB21F6129
:1011500033462A460A492046FFF76CFF034648B14A
:10116000236C042B05D1012304E0032302E00323B5
:1011700000E00323184603B0F0BD00BF08000100E3
:10118000020001002DE9F04184B004460F461546E7
:101190001E46C26A01680B6843F480630B60042A30
:1011A00004D0012A02D012F5803F05D122681368CD
:1011B00043F48073136007E0036B112B04D10268C2
:1011C000136843F48073136000962B4600224FF09F
:1011D00001112046FFF7FAFE002851D12369B3F52B
:1011E000804F05D1236847F00107FFB21F613AE045
:1011F00023684FEAE71808F0060848F0F0021A6181
:1012000033462A4625492046FFF714FF20B1236CB8
:10121000042B37D101233CE02368FFB21F61334622
:101220002A461F492046FFF705FF20B1236C042BF7
:101230002AD101232DE000220392236859690391EA
:10124000996903910399196841F4807119600096B6
:101250002B464FF001112046FFF7B8FEB0B92268C7
:1012600048F0F103136133462A460D492046FFF743
:10127000E1FE034668B1236C042B09D1012308E089
:10128000032306E0032304E0032302E0032300E03A
:101290000323184604B0BDE8F08100BF0800010038
:1012A0000200010070B504460D46164619E02046BE
:1012B000FFF776FEE0B9B5F1FF3F12D025B1FFF799
:1012C000DFF8801B85420CD2236C43F0200323649B
:1012D00000232363202284F83D2084F83C3003203F
:1012E00070BD23685B6913F0800FE0D0002070BDF3
:1012F000012070BD70B504460D46164619E0204623
:10130000FFF74EFEE0B9B5F1FF3F12D025B1FFF770
:10131000B7F8801B85420CD2236C43F02003236472
:1013200000232363202284F83D2084F83C300320EE
:1013300070BD23685B6913F0040FE0D0002070BD1E
:10134000012070BD70B505460C46164622E05A696C
:1013500012F0100F0CD06FF010025A6100232B64B2
:101360002B63202285F83D2085F83C30012070BD9C
:1013700024B1FFF785F8801B84420BD22B6C43F01D
:1013800020032B64202385F83D30002385F83C3072
:10139000032070BD2B685A6912F0400FD7D000208F
:1013A00070BD00BF002800F0838038B5044690F877
:1013B0003D3013F0FF0F04D1002380F83C3002F0E1
:1013C000A5FE242384F83D302268136823F001032E
:1013D000136001F0CDFA374BA3FB00239B0C22686E
:1013E000536021686568344A954201D8013308E0AA
:1013F0004FF4967202FB03F3304AA2FB03239B09CE
:1014000001330B62216863682B4A934208D85B0062
:10141000B0FBF3F0C0F30B03032B2BD8042029E01F
:10142000A5684DB903EB4302B0FBF2F2C2F30B0225
:10143000B2FA82F252090AE003EB830202EB820263
:10144000B0FBF2F2C2F30B02B2FA82F2520982B995
:1014500035B903EB4303B0FBF3F040F4004009E07F
:1014600003EB830303EB8303B0FBF3F040F4404052
:1014700000E00120C8612268E169236A0B43136020
:1014800022682169E3680B43936022686169A3695C
:101490000B43D3602268136843F0010313600020FC
:1014A0002064202384F83D30206384F83E0038BD5A
:1014B0000120704783DE1B43A0860100D34D6210DC
:1014C0002DE9F04184B004460D4690461F46FEF7D4
:1014D000D7FF94F83D30DBB2202B40F0A1800646C8
:1014E00000901923012255492046FFF76FFD00287F
:1014F00040F0988094F83C30012B00F09580012357
:1015000084F83C3023681A6812F0010F03D11A687E
:1015100042F001021A602268136823F4006313602A
:10152000212384F83D30102384F83E3000232364C7
:10153000C4F824806785A3F58033E362638D238537
:1015400033460A9A29462046FFF7BEFD054660B19C
:10155000236C042B04D1002384F83C30012568E07F
:10156000002384F83C30032563E0002303932368C1
:101570005A6903929B690393039B40E032460A99A0
:101580002046FFF78FFE48B1236C042B4ED1226812
:10159000136843F40073136001254AE02268636A0C
:1015A000591C61621B781361638D9BB2013B9BB236
:1015B0006385238D013B238523685A6912F0040F4C
:1015C0000DD067B1626A511C616212781A61638D35
:1015D0009BB2013B9BB26385238D013B2385324641
:1015E0000A992046FFF786FE48B1236C042B1FD1D1
:1015F0002268136843F400731360012519E0238DFA
:10160000002BBBD12268136843F4007313602023BE
:1016100084F83D30002384F83E3084F83C3008E004
:10162000022506E0022504E0022502E0032500E091
:101630000325284604B0BDE8F08100BF0200100079
:101640002DE9F04186B004460D4690461F46FEF750
:1016500017FF94F83D30DBB2202B40F05E81064648
:1016600000901923012294492046FFF7AFFC00287F
:1016700040F0558194F83C30012B00F05281012359
:1016800084F83C3023681A6812F0010F03D11A68FD
:1016900042F001021A602268136823F400631360A9
:1016A000222384F83D30102384F83E300023236445
:1016B000C4F824806785A3F58033E362638D2385B6
:1016C00033460C9A29462046FFF75CFD054660B17B
:1016D000236C042B04D1002384F83C3001252BE13A
:1016E000002384F83C30032526E1238D5BB9029367
:1016F00023685A6902929A690292029A1A6842F41D
:1017000000721A60FCE0012B11D12268136823F4E7
:10171000806313600023039323685A6903929A69D4
:101720000392039A1A6842F400721A60E8E0022BEE
:1017300012D12268136823F480631360226813684F
:1017400043F4006313600023049323685A690492EE
:101750009B690493049BD3E02268136843F480637D
:1017600013600023059323685A6905929B690593CA
:10177000059BC5E0032B00F29380012B1AD1324662
:101780000C992046FFF7DEFD28B1236C202B40F09A
:10179000CA800325D0E0636A5A1C6262226812691B
:1017A0001A70238D013B2385638D9BB2013B9BB255
:1017B0006385A5E0022B2BD100960C9B00223F49AC
:1017C0002046FFF703FC002840F0AF802268136832
:1017D00043F400731360636A5A1C626222681269E0
:1017E0001A70238D013B2385638D9BB2013B9BB215
:1017F0006385636A5A1C6262226812691A70238DBB
:10180000013B2385638D9BB2013B9BB2638577E0EF
:1018100000960C9B002229492046FFF7D7FB0028A1
:1018200040F085802268136823F480631360636A44
:101830005A1C6262226812691A70238D013B23854B
:10184000638D9BB2013B9BB2638500960C9B00228B
:101850001A492046FFF7BAFB00286AD122681368AC
:1018600043F400731360636A5A1C6262226812694F
:101870001A70238D013B2385638D9BB2013B9BB284
:101880006385636A5A1C6262226812691A70238D2A
:10189000013B2385638D9BB2013B9BB263852FE0A7
:1018A00032460C992046FFF74DFD48B1236C202BA2
:1018B00041D1032540E000BF0200100004000100F8
:1018C000636A5A1C6262226812691A70238D013B96
:1018D0002385638D9BB2013B9BB2638523685A6964
:1018E00012F0040F0CD0626A511C61621B69137004
:1018F000238D013B2385638D9BB2013B9BB26385A6
:10190000238D002B7FF436AF202384F83D30002355
:1019100084F83E3084F83C300EE002250CE00225CD
:101920000AE0022508E0012506E0032504E003257E
:1019300002E0032500E00125284606B0BDE8F0815D
:10194000704700BF704700BF704700BF90F83D3040
:10195000DAB2438D9BB2F3B110B50168436A5C1CE7
:1019600044621B780B61438D9BB2013B9BB2438564
:10197000438D9BB26BB9292A0BD10268536823F4BB
:101980008063536021230363282380F83D30FFF7F1
:10199000DBFF002010BD0020704700BF704700BF74
:1019A00008B590F83D30DAB2438D9BB2DBB1436AA3
:1019B000591C4162016809691970438D9BB2013B52
:1019C0009BB24385438D9BB26BB92A2A0BD1026827
:1019D000536823F48063536022230363282380F831
:1019E0003D30FFF7DBFF002008BD00BF704700BFA0
:1019F00008B503689A6912F0040F01D0002100E0D5
:101A000001219B6913F0800F01D1828900E0028BD4
:101A1000FFF7ECFF002008BD704700BF08B590F845
:101A20003D30DBB2C26A042A01D0082A1BD1282B20
:101A300019D11E4BC3620268536823F4E0635360FC
:101A400003686FF480625A610268136823F480634C
:101A5000136000230363202280F83D2080F83E308D
:101A6000FFF7DAFF20E0212B1AD1104BC3622123AC
:101A70000363202380F83D30002380F83E30026865
:101A8000536823F4E063536003686FF480625A6123
:101A90000268136823F480631360FFF755FF03E0C7
:101AA00003686FF480625A61002008BD0000FFFFE8
:101AB000704700BF10B590F83D30DBB290F83E2083
:101AC000D2B2C46A018D002938D1212B36D1042C21
:101AD00014D0082C12D014F5803F0FD00268536840
:101AE00023F4E063536011230363002380F83E3046
:101AF000202380F83D30FFF723FF7EE00268536823
:101B000023F4E06353600268136843F400731360C6
:101B100000230363202380F83D3090F83E30DBB291
:101B2000402B05D1002380F83E30FFF7C1FF64E071
:101B3000002380F83E30FFF703FF5EE0212B03D047
:101B4000402A5AD1222B58D1438D9BB22BB902681F
:101B5000536823F4806353604FE090F83E30DBB26B
:101B6000402B3FD1036D9BB9C36C012B07D1026899
:101B7000836CDBB21361036D023303653DE00268E1
:101B8000836CC3F307231361036D0133036534E0F2
:101B9000036D012B07D10268836CDBB21361036D07
:101BA0000133036529E0036D022B26D190F83D3007
:101BB000DBB2222B05D10268136843F480731360F3
:101BC0001BE090F83D30DBB2212B16D10268436A4E
:101BD000591C41621B781361438D9BB2013B9BB240
:101BE00043850AE00268436A591C41621B7813610D
:101BF000438D9BB2013B9BB24385002010BD00BFCB
:101C000008B5C26A90F83D30DBB2212B44D1438D38
:101C10009BB25BB10268436A591C41621B78136135
:101C2000438D9BB2013B9BB2438535E0042A14D01F
:101C3000082A12D012F5803F0FD00268536823F4AF
:101C4000E063536011230363002380F83E302023B8
:101C500080F83D30FFF774FE1EE00268536823F4FD
:101C6000E06353600268136843F400731360002359
:101C70000363202380F83D3090F83E30DBB2402BE8
:101C800005D1002380F83E30FFF712FF04E0002367
:101C900080F83E30FFF754FE002008BD704700BFBB
:101CA00008B590F83D30DBB2222B5FD1438D9BB25B
:101CB000032B0BD9436A5A1C4262026812691A70DC
:101CC000438D9BB2013B9BB243854FE0023B012B0E
:101CD00018D8C36A022B0AD00268136823F4806301
:101CE00013600268136843F40063136004E0026841
:101CF000136843F4806313600268536823F48063BD
:101D0000536033E0C36A022B05D00268136823F4E2
:101D10008063136004E00268136843F48063136017
:101D20000268536823F4E0635360436A5A1C4262BA
:101D3000026812691A70438D9BB2013B9BB24385C6
:101D4000202380F83D3090F83E30DBB2402B06D1A6
:101D50000023036380F83E30FFF7A0FF06E0122364
:101D60000363002380F83E30FFF7ECFD002008BD40
:101D700008B5C26A438D9BB2032B17D1042A04D045
:101D8000082A02D012F5803F04D10268136823F4B8
:101D900080631360436A5A1C4262026812691A70B7
:101DA000438D9BB2013B9BB243855AE0438D9BB26E
:101DB000022B4BD1042A12D0082A10D012F5803FF2
:101DC0000DD0022A05D00268136823F480631360E3
:101DD0000AE00268136843F48063136004E0026859
:101DE000136843F400731360436A5A1C426202682A
:101DF00012691A70438D9BB2013B9BB24385436AC3
:101E00005A1C4262026812691A70438D9BB2013BF0
:101E10009BB243850268536823F4407353602023C8
:101E200080F83D3090F83E30DBB2402B06D10023E5
:101E3000036380F83E30FFF731FF12E012230363A3
:101E4000002380F83E30FFF77DFD0AE0436A5A1C0C
:101E50004262026812691A70438D9BB2013B9BB2C9
:101E60004385002008BD00BF704700BF704700BF1A
:101E700010B5044690F83D30293B012B05D80023CE
:101E80000363282380F83D3010E090F83D30DBB24A
:101E9000602B07D003685B6813F4006F02D1202326
:101EA00080F83D300023236384F83E3022681368B5
:101EB00023F40063136023685A6812F4006F3AD069
:101EC0005A6822F400625A60626B92F83530DBB2D5
:101ED000012B12D0374B1365606BFEF727FE0028ED
:101EE00051D02268136823F001031360202384F883
:101EF0003D30606B036D984745E0A36B2D4A1A6532
:101F0000A06BFEF713FE00283DD023685A6912F03B
:101F1000400F04D0626A511C61621B691370226811
:101F2000136823F001031360202384F83D30A06B75
:101F3000036D984727E094F83D20D2B2602A16D16D
:101F4000202284F83D20002222645A6912F0400FBA
:101F500004D0626A511C61621B69137022681368A5
:101F600023F0010313602046FFF780FF0BE05A695E
:101F700012F0400F04D0626A511C61621B69137039
:101F80002046FFF771FF94F83D30DBB2282B0FD1CC
:101F9000236C13F0040F0BD0074BE3620023236381
:101FA000202284F83D2084F83E302046FFF734FD9F
:101FB00010BD00BFED2200080000FFFF10B582B089
:101FC00090F83D30DBB201684A6822F4E0624A6072
:101FD00000220192026851690191116841F00101EA
:101FE0001160019A01680A6822F480620A6001683F
:101FF0004A6812F4006F14D090F83D20D2B2222A21
:1020000004D090F83D20D2B22A2A05D1826B126802
:10201000526892B2428504E0426B1268526892B2F2
:102020004285428D92B202B34A6912F0040F09D080
:10203000426A541C446209691170428D92B2013A9D
:1020400092B242850268516911F0400F09D0416A8D
:102050004C1C446212690A70428D92B2013A92B2EB
:102060004285026C42F004020264026C12B1FFF776
:10207000FFFE1FE0282B03D02A2B01D0292B0BD1E8
:102080000E4BC36200230363202280F83D2080F8BA
:102090003E30FFF7C1FC0DE0026B222A01D0222B5B
:1020A00008D100230363202280F83D2080F83E30D1
:1020B000FFF774FC002002B010BD00BF0000FFFF5E
:1020C000F8B5054603689F695C695E6890F83E3024
:1020D000DBB2102B01D0402B4FD114F0011F06D0E2
:1020E00016F4007F03D02846FEF70CFE12E0454BA5
:1020F000234033B116F4007F03D02846FEF744FE98
:1021000008E0414B23402BB116F4007F02D0284653
:10211000FEF740FE3D4B3B40BBB13D4B23404BB136
:1021200016F4806F06D03B4B23401BB92846FFF7BF
:10213000C1FCF8BD374B2340002B61D016F4007F63
:102140005ED02846FFF75CFDF8BD334B23404BB112
:1021500016F4806F06D02F4B23401BB92846FFF79B
:102160009FFDF8BD2B4B2340002B49D016F4007F78
:1021700046D02846FFF7FCFDF8BD234B23402BB18A
:1021800016F4007F02D0FFF733FCF8BD234B234049
:1021900033B116F4007F03D02846FFF70FFFF8BDD8
:1021A0001A4B3B40B3B11A4B23404BB116F4806F2E
:1021B00006D0184B23401BB92846FFF7C7FBF8BDD4
:1021C000144B2340E3B116F4007F19D02846FEF7E4
:1021D000C7FEF8BD104B23404BB116F4806F06D0FC
:1021E0000C4B23401BB92846FFF7DAFBF8BD094B1F
:1021F00023402BB116F4007F02D02846FEF7C0FE24
:10220000F8BD00BF0800010002000100040010003A
:1022100080000100040001004000010010000100E6
:1022200070B5044603685D695E682F4A154209D09F
:1022300016F4807F06D0026C42F0010202646FF453
:1022400080725A6115F4813F0AD016F4807F07D05E
:10225000236C43F00203236423686FF400725A6115
:1022600015F4823F2CD016F4807F29D094F83E30AC
:10227000DBB2628D91B294F83D20D2B2206B202B5C
:102280000CD159B9212A05D0292A03D0282A05D1F1
:10229000212803D12046FFF7C1FB11E0236C43F056
:1022A0000403236494F83E30DBB2102B04D122687F
:1022B000136843F40073136023686FF480625A61FB
:1022C00015F4843F0AD016F4807F07D0236C43F0C6
:1022D0000803236423686FF400625A61236C13B10E
:1022E0002046FFF7C5FD70BD0001010008B5806BF9
:1022F0000268136823F48063136000234385426BF4
:102300001365826B136590F83D30DBB2602B0ED104
:10231000202380F83D30002380F83E3003640268BB
:10232000136823F001031360FFF7A0FD08BD20230D
:1023300080F83D30002380F83E300268136823F0B7
:1023400001031360FFF790FD08BD00BF30B583B0F7
:102350000446036813F0010F5AD09F4B9B6803F0AB
:102360000C03042B0AD09C4B9B6803F00C03082B36
:102370000DD1994B5B6813F4800F08D0964B1B6806
:1023800013F4003F44D06368002B41D19DE16368A2
:10239000B3F5803F05D1904A136843F4803313604E
:1023A00015E0B3F5A02F09D18B4B1A6842F48022B7
:1023B0001A601A6842F480321A6008E0864B1A6884
:1023C00022F480321A601A6822F480221A6063684C
:1023D0007BB1FEF755F8054605E0FEF751F8401BC6
:1023E000642800F274817C4B1B6813F4003FF4D026
:1023F0000EE0FEF745F8054605E0FEF741F8401B04
:10240000642800F26681744B1B6813F4003FF4D11A
:10241000236813F0020F5AD06F4B9B6813F00C0F18
:102420000AD06D4B9B6803F00C03082B1BD16A4B41
:102430005B6813F4800F16D1674B1B6813F0020F13
:1024400003D0E368012B40F046816348036823F022
:10245000F8012369F82292FAA2F2B2FA82F29340CA
:102460000B43036033E0E368FBB101225B4B1A606E
:10247000FEF706F8054605E0FEF702F8401B0228C5
:1024800000F22B81544B1B6813F0020FF4D052481A
:10249000036823F0F8012369F82292FAA2F2B2FA53
:1024A00082F293400B43036011E000224B4B1A6011
:1024B000FDF7E6FF054605E0FDF7E2FF401B0228B9
:1024C00000F20D81444B1B6813F0020FF4D1236816
:1024D00013F0080F26D0636993B10122404B1A60B4
:1024E000FDF7CEFF054605E0FDF7CAFF401B0228B9
:1024F00000F2F780384B5B6F13F0020FF4D011E05D
:102500000022374B1A60FDF7BBFF054605E0FDF7DB
:10251000B7FF401B022800F2E6802F4B5B6F13F0E1
:10252000020FF4D1236813F0040F69D00023019344
:10253000294B1A6C42F080521A641B6C03F08053D2
:102540000193019B274A136843F480731360FDF7DE
:1025500097FF054605E0FDF793FF401B022800F2B8
:10256000C480204B1B6813F4807FF4D0A368012B38
:1025700005D1194A136F43F00103136714E0052BCB
:1025800009D1154B1A6F42F004021A671A6F42F014
:1025900001021A6708E0104B1A6F22F001021A6755
:1025A0001A6F22F004021A67A3688BB1FDF768FF67
:1025B000054607E0FDF764FF401B41F2883398426F
:1025C00000F29580044B1B6F13F0020FF2D017E05E
:1025D000FDF756FF05460EE0003802400000474276
:1025E000800E474200700040FDF74AFF401B41F259
:1025F000883398427DD8454B1B6F13F0020FF3D1FF
:10260000A369002B77D0414A926802F00C02082A95
:1026100073D0022B46D100223D4B1A60FDF730FFEC
:10262000054604E0FDF72CFF401B022867D8374B16
:102630001B6813F0007FF5D1E169236A1943636ACF
:1026400047F6C07292FAA2F2B2FA82F293401943AC
:10265000A36A5B085A1E4FF4403393FAA3F3B3FA0C
:1026600083F302FA03F30B43E26A4FF0706191FACD
:10267000A1F1B1FA81F18A401343244A5360012247
:10268000234B1A60FDF7FCFE044604E0FDF7F8FE5C
:10269000001B022835D81D4B1B6813F0007FF5D0B6
:1026A000002031E000221A4B1A60FDF7E9FE0446D3
:1026B00004E0FDF7E5FE001B022824D8134B1B683D
:1026C00013F0007FF5D100201EE001201CE0032064
:1026D0001AE0032018E0012016E0032014E0032094
:1026E00012E0032010E003200EE003200CE00320A2
:1026F0000AE0032008E0002006E0012004E00320B7
:1027000002E0032000E0032003B030BD00380240A7
:1027100060004742244B9B6803F00C03042B3FD01E
:10272000082B01D02148704710B41F4B586800F0A7
:102730003F005B6813F4800F10D01D4BB3FBF0F02B
:10274000194B5A6847F6C0710A4091FAA1F3B3FADF
:1027500083F322FA03F303FB00F310E0134BB3FB04
:10276000F0F0114B5A6847F6C07402EA040194FA7B
:10277000A4F2B2FA82F221FA02F202FB00F30A4A50
:10278000506800F440324FF4403090FAA0F0B0FAB4
:1027900080F022FA00F001304000B3FBF0F001E0DD
:1027A0000348704710BC7047003802400024F40012
:1027B00000127A0070B5674B1B6803F00F038B4261
:1027C00008D2CBB2634A1370136803F00F03994227
:1027D00040F0AE80036813F0020F06D05E4CA36891
:1027E00023F0F00283681343A3600D460446036898
:1027F00013F0010F60D04268012A05D1564B1B68C7
:1028000013F4003F0FD195E0931E012B05D8524BD6
:102810001B6813F0007F06D18EE04F4B1B6813F04E
:10282000020F00F08B804C498B6823F003031343A5
:102830008B60FDF725FE06466368012B0ED106E08E
:10284000FDF71EFE801B41F28833984278D8424B38
:102850009B6803F00C03042BF2D12DE0022B0ED168
:1028600006E0FDF70DFE801B41F28833984269D8DF
:10287000394B9B6803F00C03082BF2D11CE0032BAF
:1028800015D106E0FDF7FCFD801B41F2883398422C
:102890005AD8314B9B6803F00C030C2BF2D10BE0A0
:1028A000FDF7EEFD801B41F2883398424ED82A4B4B
:1028B0009B6813F00C0FF3D1264B1B6803F00F033A
:1028C0009D4207D2EAB2234B1A701B6803F00F0334
:1028D0009D423DD1236813F0040F06D01E498B683A
:1028E00023F4E052E36813438B60236813F0080F6E
:1028F00007D0194A936823F46043216943EAC1036E
:102900009360FFF707FF144B9B6803F0F002F0237E
:1029100093FAA3F3B3FA83F322FA03F30F4AD35CD7
:10292000D8400F4B18600020FDF772FD002070BDED
:10293000012070BD012070BD012070BD012070BD5F
:10294000032070BD032070BD032070BD032070BD47
:10295000012070BD003C024000380240B8830008EE
:102960000C000020014B1868704700BF0C000020CD
:1029700008B5FFF7F7FF084B9B6803F4E0524FF4EC
:10298000E05393FAA3F3B3FA83F322FA03F3034A6F
:10299000D35CD84008BD00BF00380240B8830008AF
:1029A00008B5FFF7DFFF084B9B6803F460424FF464
:1029B000604393FAA3F3B3FA83F322FA03F3034ACF
:1029C000D35CD84008BD00BF00380240B88300087F
:1029D00000283CD010B504460023836290F85130A3
:1029E00013F0FF0F04D1002380F8503002F06EFB8B
:1029F000022384F851302268136823F040031360E7
:102A000021686268A3681A43E3681A4323691A437A
:102A100063691A43A36903F400731343E269134320
:102A2000226A1343A26A1A430A602168638B03F087
:102A30000402636A13434B602268D36923F4006382
:102A4000D36100206065012384F8513010BD01205E
:102A5000704700BF704700BF10B584B004460268DD
:102A60005168936803F04100012806D111F0400F2E
:102A700003D0236C204698476CE013F0020F06D079
:102A800011F0800F03D0636C2046984762E013F486
:102A9000B07F5FD011F0200F5CD013F0400F18D042
:102AA00094F85100C0B203280BD0606D40F00400D0
:102AB000606500200090D0680090906800900098B9
:102AC00007E000230193D368019393680193019B6E
:102AD00040E013F0200F0CD0606D40F00100606505
:102AE0000020029090680290106820F04000106072
:102AF000029A13F4807F09D0636D43F00803636585
:102B00000023039323689B680393039B636D0BB3BC
:102B10002268536823F0E0035360012384F85130A6
:102B200011F0030F13D02268536823F0030353609E
:102B3000E36C23B1084A1A65E06CFDF7F7FFA36C5C
:102B400043B1054A1A65A06CFDF7F0FF02E020468C
:102B5000FFF780FF04B010BD5D2B000808B5806B47
:102B60000023C387C386FFF775FF08BD70B4036AEF
:102B700023F001030362036A4668826922F073024C
:102B80000C6842EA040523F002028B6813430B4CE5
:102B9000A0420BD123F00803CA68134323F00403B7
:102BA00026F440764A6932438E6916434660856151
:102BB0004A684263036270BC704700BF0000014076
:102BC00030B4036A23F480730362036A4468C26901
:102BD00022F073020D682A4323F400738D6843EAE0
:102BE00005230C4DA8420ED123F40063CD6843EABF
:102BF000052323F4806324F440544D6944EA05140A
:102C00008D6944EA05144460C2614A68C263036284
:102C100030BC70470000014030B4036A23F4805395
:102C20000362036A4468C26922F4E6420D6842EA1C
:102C3000052223F400538D6843EA0533074DA8426B
:102C400004D124F480444D6944EA85144460C2618F
:102C50004A680264036230BC704700BF0000014054
:102C60000368314A904210D0B0F1804F0FD0A2F5E6
:102C70007C4290420DD002F5806290420BD002F56A
:102C80008062904209D1012208E0012206E001227F
:102C900004E0012202E0012200E000221AB123F048
:102CA00070034A681343204A90421CD0B0F1804F11
:102CB0001BD0A2F57C42904219D002F5806290426E
:102CC00017D002F58062904215D002F59A329042F8
:102CD00013D002F58062904211D002F580629042DA
:102CE0000FD101220EE001220CE001220AE00122B4
:102CF00008E0012206E0012204E0012202E00122B4
:102D000000E000221AB123F44073CA681343036041
:102D10008B68C3620B688362034B984201D10B69D5
:102D2000036301234361704700000140B8B110B54F
:102D3000044690F8393013F0FF0F04D1002380F8D7
:102D4000383002F071FA022384F83930211D2068EE
:102D5000FFF786FF012384F83930002010BD0120E1
:102D6000704700BF30B4036A23F010030362036AA4
:102D70004468826922F4E6420D6842EA052223F0A3
:102D800020038D6843EA05130C4DA8420ED123F0B1
:102D90008003CD6843EA051323F0400324F4406424
:102DA0004D6944EA85048D6944EA85044460826182
:102DB0004A688263036230BC704700BF0000014074
:102DC00038B590F83830012B66D00D460446012303
:102DD00080F83830022380F839300C2A55D8DFE8E3
:102DE00002F0075454541A5454542E54545441006D
:102DF0000068FFF7BBFE2268936943F00803936104
:102E00002268936923F004039361226891692B6916
:102E10000B43936139E00068FFF7A4FF22689369D0
:102E200043F4006393612268936923F480639361A0
:102E300022689369296943EA0123936125E00068C8
:102E4000FFF7BEFE2268D36943F00803D36122680E
:102E5000D36923F00403D3612268D1692B690B4342
:102E6000D36112E00068FFF7D7FE2268D36943F40C
:102E70000063D3612268D36923F48063D36122683D
:102E8000D369296943EA0123D361012384F83930E6
:102E9000002084F8380038BD022038BD10B401236A
:102EA00003FA01F4036A23EA04030362036A8A4013
:102EB0001A43026210BC704710B504460122006834
:102EC000FFF7ECFF2368074A934203D15A6C42F4A0
:102ED00000425A642268136843F001031360002023
:102EE00010BD00BF0000014090F83830012B21D008
:102EF00030B4012280F83820022380F83930046889
:102F0000636823F070036360046865680B682B4393
:102F100063600468A36823F08003A3600468A56865
:102F20004B682B43A36080F83920002380F83830A9
:102F3000184601E00220704730BC704790F83830E6
:102F4000012B1CD030B4012580F83850022380F8C2
:102F5000393004680A684B681A438B681A43CB6897
:102F60001A430B691A434B691A438B691343636411
:102F700080F83950002380F83830184601E00220EC
:102F8000704730BC704700BF0268D36823F4907369
:102F9000D3600268536923F001035361202380F852
:102FA0003A30704790F83930DBB2212B2BD183684F
:102FB000B3F5805F0FD1036A02681B88C3F308036F
:102FC000536003691BB9036A0233036209E0036AB1
:102FD0000133036205E00268036A591C01621B7831
:102FE0005360C38C9BB2013B9BB2C3846BB9026834
:102FF000D36823F08003D3600268D36843F04003B2
:10300000D36000207047022070470020704700BF47
:103010002DE9F843044601680B6923F44052C36864
:1030200013430B610068C36823F4164222F00C02BC
:10303000A1682369194363691943E3690B43134387
:10304000C36021684B6923F44072A36913434B6149
:10305000E369B3F5004F40F0BB80276803F180437C
:1030600003F510439F4203D003F580639F4257D17D
:10307000FFF796FC00EB800000EB800065686D00B8
:10308000B0FBF5F5AB4EA6FB05356D092D01FFF73D
:1030900087FC00EB800000EB800063685B00B0FB06
:1030A000F3F9FFF77DFC00EB800000EB8000636824
:1030B0005B00B0FBF3F3A6FB03235B094FF064084E
:1030C00008FB1393DB003233A6FB03235B095B0091
:1030D00003F4F8731D44FFF763FC00EB800000EB82
:1030E000800063685B00B0FBF3F9FFF759FC00EB6D
:1030F000800000EB800063685B00B0FBF3F3A6FB8D
:1031000003235B0908FB13984FEAC80808F132084B
:10311000A6FB0836C6F342163544BD60BDE8F88309
:10312000FFF726FC00EB800000EB800065686D0077
:10313000B0FBF5F57F4EA6FB05356D092D01FFF7B8
:1031400017FC00EB800000EB800063685B00B0FBC5
:10315000F3F9FFF70DFC00EB800000EB80006368E3
:103160005B00B0FBF3F3A6FB03235B094FF064089D
:1031700008FB1393DB003233A6FB03235B095B00E0
:1031800003F4F8731D44FFF7F3FB00EB800000EB42
:10319000800063685B00B0FBF3F9FFF7E9FB00EB2D
:1031A000800000EB800063685B00B0FBF3F3A6FBDC
:1031B00003235B0908FB13984FEAC80808F132089B
:1031C000A6FB0836C6F342163544BD60BDE8F88359
:1031D0002668594B9E4203D003F580639E4254D12A
:1031E000FFF7DEFB00EB800000EB80006568AD00C0
:1031F000B0FBF5F54F4FA7FB05356D092D01FFF726
:10320000CFFB00EB800000EB800063689B00B0FB0D
:10321000F3F8FFF7C5FB00EB800000EB800063686C
:103220009B00B0FBF3F3A7FB03235B094FF064099A
:1032300009FB13831B013233A7FB03235B0903F054
:10324000F0031D44FFF7ACFB00EB800000EB8000B7
:1032500063689B00B0FBF3F8FFF7A2FB00EB800074
:1032600000EB800063689B00B0FBF3F3A7FB032334
:103270005B0909FB13831B013233A7FB0323C3F351
:1032800043131D44B560BDE8F883FFF771FB00EB05
:10329000800000EB80006568AD00B0FBF5F5254FC0
:1032A000A7FB05356D092D01FFF762FB00EB8000E0
:1032B00000EB800063689B00B0FBF3F8FFF758FB5E
:1032C00000EB800000EB800063689B00B0FBF3F331
:1032D000A7FB03235B094FF0640909FB13831B0160
:1032E0003233A7FB03235B0903F0F0031D44FFF710
:1032F0003FFB00EB800000EB800063689B00B0FBAD
:10330000F3F8FFF735FB00EB800000EB800063680B
:103310009B00B0FBF3F3A7FB03235B0909FB1383BB
:103320001B013233A7FB0323C3F343131D44B560D2
:10333000BDE8F8831F85EB51001001402DE9F041F5
:1033400005460F4616469846069C1EE0B4F1FF3F20
:103350001BD02CB1FDF794F8C8EB0000844214D2C6
:103360002A68D36823F4D073D3602A68536923F0A2
:1033700001035361202385F8393085F83A30002362
:1033800085F838300320BDE8F0812B681B6837EAE8
:1033900003030CBF01230023B342D7D00020BDE8B4
:1033A000F08100BF68B310B5044690F8393013F0CF
:1033B000FF0F04D1002380F8383002F05DF8242399
:1033C00084F839302268D36823F40053D360204650
:1033D000FFF71EFE2268136923F4904313612268ED
:1033E000536923F02A0353612268D36843F40053DE
:1033F000D3600020E063202384F8393084F83A3029
:1034000010BD0120704700BF2DE9F04182B01E467B
:1034100090F83930DBB2202B56D104460D46904649
:10342000002953D0002A53D090F83830012B51D0C6
:10343000012380F838300023C363212380F839301A
:10344000FDF71EF80746A4F82480A4F8268027E09C
:10345000E38C9BB2013B9BB2E384A368B3F5805F2E
:1034600012D100963B46002280212046FFF766FFDE
:1034700090BB22682B88C3F30803536023690BB900
:1034800002350DE001350BE000963B46002280211D
:103490002046FFF753FF08BB23682A785A6001359E
:1034A000E38C9BB2002BD3D100963B4600224021F7
:1034B0002046FFF743FF034690B9202284F83920C5
:1034C000002284F838200CE002230AE0012308E0FF
:1034D000012306E0022304E0032302E0032300E0CB
:1034E0000323184602B0BDE8F08100BF704700BF5B
:1034F00008B50168CB6823F04003CB60202380F837
:103500003930FFF7F3FF002008BD00BF704700BF50
:1035100008B590F83A30DBB2222B3FD18368B3F57F
:10352000805F13D1826A036943B903685B68C3F3A0
:1035300008031380836A0233836218E003685B68C0
:10354000DBB21380836A0133836210E0036933B90D
:10355000836A5A1C8262026852681A7007E0826AA3
:10356000531C836203685B6803F07F031370C38D91
:103570009BB2013B9BB2C38593B90268D36823F425
:103580009073D3600268536923F0010353612023D1
:1035900080F83A30FFF7BAFF002008BD022008BDCE
:1035A000002008BD704700BF10B5044602681368CC
:1035B000D168526913F00F0009D113F0200F06D023
:1035C00011F0200F03D02046FFF7A2FF10BD002806
:1035D00062D012F0010202D111F4907F5CD013F09E
:1035E000010F06D011F4807F03D0E06B40F00100A2
:1035F000E06313F0040F04D01AB1E06B40F0020056
:10360000E06313F0020F04D01AB1E06B40F0040045
:10361000E06313F0080F04D01AB1E26B42F0080225
:10362000E263E26B002A4AD013F0200F05D011F0BC
:10363000200F02D02046FFF76BFF23685B6903F081
:103640004003E26B12F0080F00D1FBB12046FFF7F8
:103650009BFC23685A6912F0400F13D05A6922F07C
:1036600040025A61636B4BB1154A1A65606BFDF7F6
:103670005DFA20B3606B036D984710BD2046FFF7DD
:1036800091FF10BD2046FFF78DFF10BD2046FFF7CC
:1036900089FF0023E36310BD13F0800F06D011F003
:1036A000800F03D02046FFF77DFC10BD13F0400FC4
:1036B00005D011F0400F02D02046FFF719FF10BDD2
:1036C000C536000808B5806B0023C385C384FFF7A7
:1036D00069FF08BDFEE700BF08B50D4B1B6813B9B5
:1036E0000C4A0B4B1A600A4B1A68C31C23F00303E5
:1036F000134409498B4206D904F0B6F90C23036040
:103700004FF0FF3008BD02490B60104608BD00BFF6
:103710008C000020E40D002000FC01200123036048
:10372000014B0B60704700BF040000200FB400B5D0
:1037300083B004AB53F8042B01938021064804F0B6
:10374000A5FA002803DD0146034800F039F803B06C
:103750005DF804EB04B07047940000202DE9F043BD
:1037600085B004460F46435613BB04252846214620
:10377000ABBE04461FE03546102E28BF102500239F
:1037800006E014F9011B04AA1A4402F8101C0133C4
:10379000AB42F6D304AA1344002203F8102CE946E6
:1037A0004FF0040840464946ABBE8046761B00E019
:1037B0000E46002EDFD1384605B0BDE8F08300BFCD
:1037C00008B5FFF7CBFF08BD08B500F097F8024B2E
:1037D000024A9A6008BD00BF00ED00E0000000084A
:1037E00008B500F0ABF808BDF8B504460D4617461D
:1037F0001E462648FFF79AFF21682548FFF796FFE7
:1038000061682448FFF792FFA1682348FFF78EFF05
:10381000E1682248FFF78AFF21692148FFF786FF08
:1038200061692048FFF782FFA1691F48FFF77EFF0B
:10383000E1691E48FFF77AFF1D48FFF777FF294629
:103840001C48FFF773FF1C4CE16A1C48FFF76EFF32
:10385000216B1B48FFF76AFFE16B1A48FFF766FF11
:1038600015F0800F03D039461748FFF75FFF15F4B6
:10387000004F03D031461548FFF758FF1448FFF7B3
:1038800055FF06991348FFF751FFF8BDC88300089C
:10389000D8830008E8830008F8830008088400083B
:1038A0001884000828840008388400084884000828
:1038B000588400086484000800ED00E07484000867
:1038C0008484000894840008A4840008B484000858
:1038D000C4840008CC84000883691A888A4207D10E
:1038E0000268033A012A05D8023383610120704738
:1038F0000020704700207047FEE700000C4B1A685C
:1039000042F001021A60002199601A6822F0847264
:1039100022F480321A60074A5A601A6822F4802220
:103920001A60D9604FF00062034B9A60704700BF85
:10393000003802401030002400ED00E0224B9B686C
:1039400003F00C03042B07D0082B09D0002B2DD13A
:103950001E4A1F4B1A602CE01E4A1D4B1A6028E0BD
:10396000194B5A685B6803F03F0312F4800F09D0CB
:10397000184AB2FBF3F2144B5B68C3F3881303FBE2
:1039800002F208E0114AB2FBF3F30F4A5168C1F3A7
:10399000881101FB03F20C4B5B68C3F30143013355
:1039A0005B00B2FBF3F30A4A136002E0074A084BDC
:1039B0001A60054B9B68C3F30313074AD15C044AA2
:1039C0001368CB4013607047003802400024F400B5
:1039D0000C00002040787D011085000800B585B0FE
:1039E0001348144B03604FF480334360002383601B
:1039F000036183610362C3620F4A8262C360012272
:103A0000C26103634261FCF7DDFD08B100F0E2FB37
:103A10000023009301220192029369460448FCF7B7
:103A20002DFF08B100F0D6FB05B05DF804FB00BF28
:103A3000EC090020002001400100000F02681A4B31
:103A40009A4230D130B587B00024009403F58C330E
:103A50005A6C42F480725A645B6C03F48073009376
:103A6000009B3323019303250295039401A90F487A
:103A7000FDF770F8D32301930295039401A90C4834
:103A8000FDF768F801950295039401A90948FDF72F
:103A900061F8224621461220FCF7CCFF1220FCF7E9
:103AA000FBFF07B030BD7047002001400008024016
:103AB00000000240000402400122014B1A607047DE
:103AC0001401002008B50448044B0360FDF71AF800
:103AD00008B100F07FFB08BD340A0020003002402E
:103AE0000268094B9A420DD182B000230193074B23
:103AF0001A6B42F480521A631B6B03F480530193D8
:103B0000019B02B0704700BF003002400038024005
:103B100030B58BB000240194224B1A6B42F00402A2
:103B20001A631A6B02F004020192019A02941A6B52
:103B300042F080021A631A6B02F080020292029A2B
:103B400003941A6B42F001021A631A6B02F001022D
:103B50000392039A04941A6B42F002021A631B6BDD
:103B600003F002030493049B0F4D224620212846B4
:103B7000FDF7BEF84FF4005305930C4B06930794E2
:103B800005A90B48FCF7E6FF2023059301230693C4
:103B900007940323089305A92846FCF7DBFF0BB025
:103BA00030BD00BF0038024000000240000021107C
:103BB00000080240F8B50F4616461C4603F028FCE4
:103BC00005462146069803F023FC0146284603F0EB
:103BD00029FD05463946304603F01AFC01462846C1
:103BE00003F0D4FD0146204603F014FCF8BD00BFED
:103BF0002DE9F04383B005460023036043608360F2
:103C0000374C03232370374F4FF47A760096012305
:103C100022463C213868FDF753FC009602232246D9
:103C20003C213868FDF70CFD2078637843EA0020DA
:103C300000B203F0A3FC80462B4B186803F09EFCF7
:103C40000146404603F0E4FBDFF8A480D8F80010FA
:103C500003F0E8FC28600723237000960123224626
:103C60003C213868FDF72CFC0096022322463C21BB
:103C70003868FDF7E5FC2078637843EA002000B25D
:103C800003F07CFC8146194B186803F077FC014671
:103C9000484603F0BDFBD8F8001003F0C3FC686091
:103CA000052323700096012322463C213868FDF746
:103CB00007FC38680096022322463C21FDF7C0FC31
:103CC0002078637843EA002000B203F057FCD8F86C
:103CD000001003F0A7FCA860284603B0BDE8F083FD
:103CE00028010020440A00203C0A0020400A00204D
:103CF000480A002000000000F0B587B003A8FFF7D5
:103D000077FF03994A4B196004985860059A9A60A6
:103D100001F06AFE474903F07DFB0446002103F0F1
:103D20001FFE50B1204603F009F83DA3D3E900235C
:103D300002F0A6FE03F018FB0446204602F0FEFF48
:103D400006460F4636A3D3E9002303F0DBFA48B159
:103D500033A3D3E900233046394602F08FFE03F047
:103D600003FB04463449204603F05CFC02F0E6FF06
:103D70002DA3D3E9002303F05FF903F0F5FA04461D
:103D80002E4B18604FF07E5103F0FEFD70B12C49B0
:103D9000204603F0E5FD48B100212A4B00930B4675
:103DA000294A2046FFF706FF05460CE02449204635
:103DB00003F0EAFD38B1254A00921F4B2049204606
:103DC000FFF7F8FE0546284602F0B8FF01F0BCFDFB
:103DD00003F0A2FA1E4B186003F0D0FB05461D4B02
:103DE0001C681D49204603F015FB0146284603F0D8
:103DF000B7FD68B11849204603F00AFB0146284682
:103E000003F0CCFD20B1204603F0E8FD104B186014
:103E10000F4B186803F0B2FB0E4B186007B0F0BDF3
:103E2000182D4454FB211940182D4454FB210940FE
:103E3000180100200F72853B00003443240100204C
:103E4000000070430000334300006F430000B443A0
:103E50003C0100203801002000004040024B186067
:103E6000024B1960704700BF3C0A0020400A002046
:103E700000B583B0072824D8DFE800F004080C1050
:103E800014181C20174A184B1A601AE0174A164BD0
:103E90001A6016E0164A144B1A6012E0154A124BCB
:103EA0001A600EE0144A104B1A600AE0134A0E4BD7
:103EB0001A6006E0124A0C4B1A6002E0114A0A4BE3
:103EC0001A604001104A0123137050700F4B18689C
:103ED0004FF47A73009302233C21FDF7F1FA03B00B
:103EE0005DF804FB0681953D480A00201F856B3F65
:103EF000F6289C3F5C8FC23FAE4711400AD7234053
:103F000085EB414033338B4028010020440A0020D8
:103F10002DE9F04182B08046124C02252570124FE7
:103F20004FF47A760096012322463C213868FDF74B
:103F3000C7FA0096012322463C213868FDF780FB32
:103F4000237803F0FC0343EA0808257084F8018015
:103F5000386800962B4622463C21FDF7B1FA02B0A4
:103F6000BDE8F08128010020440A00202DE9F0413D
:103F700082B08046124C00272770124E4FF47A759B
:103F80000095012322463C213068FDF799FA0095FF
:103F9000012322463C213068FDF752FB207800F0D7
:103FA000E30040EA880027706070306800950223C3
:103FB00022463C21FDF784FA02B0BDE8F08100BF43
:103FC00028010020440A00202DE9F04182B08046FB
:103FD000124C00272770124E4FF47A75009501237A
:103FE00022463C213068FDF76BFA009501232246FA
:103FF0003C213068FDF724FB207800F09F0040EA68
:1040000048102770607030680095022322463C21DA
:10401000FDF756FA02B0BDE8F08100BF280100208C
:10402000440A002070B582B0284E3060284C0A2324
:1040300023704FF47A750095012322463C21FDF749
:104040003FFA30680095012322463C21FDF7F8FA3B
:104050002378482B38D10B23237000950123224667
:104060003C213068FDF72CFA306800950123224688
:104070003C21FDF7E5FA2378342B25D10C2323705E
:104080000095012322463C213068FDF719FA30687B
:104090000095012322463C21FDF7D2FA2378332BE9
:1040A00012D10120FFF7E4FE0020FFF731FF0520C9
:1040B000FFF75CFF0320FFF787FF6FF021017220FD
:1040C000FFF7CCFEFFF718FE02B070BD440A0020D7
:1040D0002801002008B50A480A4B03600A4B4360D8
:1040E00000238360C3604FF48042026143618361B7
:1040F000C3610362FDF756F908B100F06BF808BD23
:104100004C0A002000540040A08601000268194BB0
:104110009A422ED110B586B0C02301931223029388
:104120000123039303230493042305930DEB03015D
:104130001148FCF70FFD00240094104B1A6C42F458
:1041400000121A641B6C03F400130093009B2246B8
:1041500021461F20FCF76EFC1F20FCF79DFC224629
:1041600021462020FCF766FC2020FCF795FC06B0D9
:1041700010BD704700540040000402400038024067
:1041800010B5044620210648FCF7B8FD6288054BAF
:104190001A60A288044B1A60E288044B1A6010BDB2
:1041A000000002405C0100207C010020580100203A
:1041B00008B5FCF765F9054B1860054B1B681BB18A
:1041C000034A1368013B136008BD00BF6C01002067
:1041D000C8010020FEE700BF00B595B000230193A1
:1041E000264A116C41F080511164126C02F0805229
:1041F0000192019A0293224A116841F440411160F0
:10420000126802F440420292029A022108910122AD
:104210000B9210220C920E910F9310924FF4A873F0
:10422000119304231293139308A8FEF78FF808B193
:10423000FFF7D0FF0F23039302210491002305937E
:104240004FF480520692079303A8FEF7B3FA08B121
:10425000FFF7C0FFFEF786FB0A4BA3FB0030800987
:10426000FCF726FC0420FCF739FC002211464FF035
:10427000FF30FCF7DFFB15B05DF804FB00380240AF
:1042800000700040D34D6210F0B599B0FCF7D6F83D
:10429000FFF7A2FFFFF73CFCFFF7A0FBFFF712FCC4
:1042A000FFF718FF00F0F2FE01F014F801F062F8D9
:1042B00001F0AEF801F0C6F8274D284601F08AF863
:1042C000264B1A68264B1968264800F0B9FD264B84
:1042D0001868264C009400231A46194600F024FB67
:1042E0002348FCF799F9204600F056FD2046FFF7D9
:1042F00099FE284601F01AF91E4C4FF080421E49E3
:10430000206800F0B5FD206800F032FEFCF7B8F838
:104310001A4B1860194B1B68194A12689B1AB3F59F
:104320007A7F07D9154B1A68154B1A60202115485A
:10433000FCF7E4FC144B1B687BBB144B1B6863B39A
:10434000012B02D0022B23D027E001330F4A136048
:1043500000F02AFD21E000BFD00B00206401002006
:1043600068010020180B0020740100204C0A002076
:10437000EC09002040010020CDCC4C3D6C01002018
:104380004801002000000240C8010020BC010020BC
:104390000133AB4A136000F019FDAA4B1B68AA4A0F
:1043A00012689B1A642B29D9A64B1A68A64B1A606F
:1043B000A64BB3F90030ADF80C30A54B1B68049345
:1043C000A44BB3F90030ADF80A30A34B1B68ADF82D
:1043D0001430A24B1A6807925A6808929B68099396
:1043E0002C24224600210DA803F05FFB02A90DA892
:1043F00000F03EFB21460DA801F066F9914B1B68C9
:10440000974A12689B1A322B66D98E4B1A68944BC6
:104410001A6018AC002324F82C3D924D4FF47A76A4
:1044200000960123224690212846FDF749F8009680
:104430000223224690212846FDF702F99DF8340018
:104440009DF835301B0943EA001003F097F84FF050
:10445000765103F0E7F8844903F0E4F803F0BEFA7C
:104460007A4B186000F014FCFFF746FC7F4D28687B
:1044700000F082FA2B68B3F90C40B3F90E60B3F97F
:10448000100003F07BF80746304603F077F8064645
:10449000204603F073F8764C3B46324601462068CE
:1044A00000F000FD2B68B3F91270B3F91450B3F9A2
:1044B000160003F063F80646284603F05FF8054649
:1044C000384603F05BF833462A460146206800F080
:1044D000EDFC206800F0BEFD5A4B1B68654A12686F
:1044E0009B1AB3F57A7F71D9564B1A68614B1A60E3
:1044F000AB238DF83430CD238DF83530554B1B6808
:10450000C3F307228DF836208DF837304F4B1B68E8
:10451000C3F307228DF838208DF839304C4B1B68D7
:104520001A0E8DF83A201A0C8DF83B201A0A8DF8D5
:104530003C208DF83D30484A1368C3F307238DF8BB
:104540003E3013688DF83F304B4B1B68C3F3072296
:104550008DF840208DF84130484B1B68C3F307228B
:104560008DF842208DF84330454B1B68C3F307227A
:104570008DF844208DF84530424B1B68C3F3072269
:104580008DF846208DF847303F4B1B68C3F3072258
:104590008DF848208DF849303C4B1B68C3F3072247
:1045A0008DF84A208DF84B30394B1B68C3F3072236
:1045B0008DF84C208DF84D3055238DF84E304FF44A
:1045C0007A731B220DA93348FEF71EFF324B1A687F
:1045D000324B1B689A4201D02F4A1360304B1B6844
:1045E000304A11688B4204D02D4B1960002000F036
:1045F0000FFC2D4B1B682D4A11688B4204D02A4BAF
:104600001960042000F004FC294B1B68002B00F00B
:10461000AB800022264B1A602648FCF781F8264B17
:104620001B68112B00F28D80DFE803F061658B8B36
:10463000698B6D7175797D838B8B878B8B4800BF00
:10464000BC0100206C0100209001002044010020EA
:10465000CC01002078010020C001002018010020BA
:10466000980100204C0A00200000C842740100207C
:1046700040010020880100203C0100208001002032
:104680008C0100204C01002050010020540100202A
:1046900070010020900B0020600100205C010020D0
:1046A000680100207C0100206401002058010020E6
:1046B00014010020EC09002010000020424A136879
:1046C00018441060414A136801331360B3F5806FDA
:1046D00009D3800A3E4B18603E4B186000233A4ACB
:1046E00013603A4A136000223B4B1A602CE001220F
:1046F000394B1A6028E00422374B1A6024E0062266
:10470000354B1A6020E00722334B1A601CE0082268
:10471000314B1A6018E009222F4B1A6014E00A226C
:104720002D4B1A6010E02D4B18600B222A4B1A609B
:104730000AE00E22284B1A6006E00F22264B1A6070
:1047400002E01122244B1A60234B1B680D930123B6
:104750000E9300230F931093214C0DA92046FCF7D4
:104760008DF82046FBF758FF1E4AB2F8003403F5D7
:104770008063B2F802249B1AC3F309033BB11A48C1
:1047800000F02EFE18B9184B187800F0A5FF174A54
:10479000B2F800338033B2F802239B1A13F07F0F74
:1047A0003FF4B8AD0023029318A941F82C3D02A8AC
:1047B00001F0A8F818B90D99029800F037F902989D
:1047C00003F060F9A6E500BF8401002094010020F9
:1047D000140000204C01002010000020780100206F
:1047E000EC090020D00100209C010020D805002009
:1047F0002DE9F04385B005460E464FF01B0904AC89
:1048000004F8049D0178DFF884804FF47A770097EC
:1048100001232246D8F80000FCF752FE29780097C1
:1048200001232246D8F80000FCF70AFF9DF80C305F
:1048300023F0180343EAC6038DF80D308DF80C9071
:104840002978D8F80000009702232246FCF738FEAA
:10485000032E0ED8DFE806F00205080B074B6B604D
:1048600007E0074B6B6004E0064B6B6001E0064B12
:104870006B60002005B0BDE8F08300BF2D23FA3B3C
:104880002D237A3C90C1F93C90C1793D440A002027
:104890002DE9F04385B005460E464FF01C0904ACE7
:1048A00004F8049D0178DFF87C804FF47A77009754
:1048B00001232246D8F80000FCF702FE2978009771
:1048C00001232246D8F80000FCF7BAFE9DF80C3010
:1048D00023F0180343EAC6038DF80D308DF80C90D1
:1048E0002978D8F80000009702232246FCF7E8FD5B
:1048F000032E12D8DFE806F002060A0E4FF06253CC
:10490000AB600AE04FF06453AB6006E04FF06653D3
:10491000AB6002E04FF06853AB60002005B0BDE82B
:10492000F08300BF440A0020F0B585B00446164667
:104930001F46104B0A9A1A6061F02F0101706B221A
:104940008DF80C2000258DF80D5018684FF47A73FF
:104950000093022303AAC9B2FCF7B2FD39462046F0
:10496000FFF746FF31462046FFF792FF284605B085
:10497000F0BD00BF440A002070B588B0044608AA04
:104980003B2322F8123D0178254E4FF47A750095AD
:1049900001233068FCF794FD2178306800950E23E0
:1049A00004AAFCF74DFE9DF810209DF8113043EA53
:1049B0000223A3819DF812209DF8133043EA0223BD
:1049C000E3819DF814209DF8153043EA02232382E9
:1049D0009DF816009DF8173043EA002000B202F05F
:1049E000CDFD104902F0D2FE0F4902F013FDA06187
:1049F0009DF818209DF8193043EA022363829DF840
:104A00001A209DF81B3043EA0223A3829DF81C2044
:104A10009DF81D3043EA0223E382002008B070BDF8
:104A2000440A00200000AA43B81E12420A291ED1DF
:104A300000B585B005E001781970114601330130E9
:104A400000E001AB4A1E0029F5D1BDF804204CF668
:104A5000FE239A4208D1BDF80C204BF6BE239A42A1
:104A600002D101A8FFF78CFB05B05DF804FB70478D
:104A70004CF6FE230B804BF6BE230B85002304E08F
:104A80000A7802700133013101302B2BF8D97047BD
:104A900000B583B00B4AF42313702E2353700A4BD6
:104AA00018684FF47A7300930223EE21FCF708FD97
:104AB0000522064B1A600122054B1A6003B05DF80F
:104AC00004FB00BFA0010020A00A0020C8010020B4
:104AD000BC0100200D4B1B68022B15D100B583B023
:104AE0000B4AF4231370342353700A4B18684FF4A5
:104AF0007A7300930223EE21FCF7E2FC0522064BB9
:104B00001A6003B05DF804FB704700BFBC010020D1
:104B1000A0010020A00A0020C8010020474B1B680C
:104B2000032B40F0898010B545480388454A128818
:104B30009A1A454B1B8803FB02F2D213434BB3F97D
:104B40000030D902424BB3F90030134491FBF3F328
:104B50001A44404B1A6002F10804C4F30F14048095
:104B6000A2F57A6202FB02F33B49B1F9000003FBB4
:104B700000F03A49B1F9001002FB01F1C91201EB52
:104B8000E0513748B0F9000001EB800002303549B0
:104B9000B1F9001002FB01F21913334BB3F90030E5
:104BA00001FB03F31B1403EB623302339B1003F589
:104BB00000422E4B1B8802FB03F3DB0B2C4A1268CE
:104BC000A2EBA0004CF2503202FB00F0002803DB05
:104BD0004000B0FBF3F302E0B0FBF3F35B0018120C
:104BE00000FB00F040F6DE3202FB00F0214A02FB3F
:104BF00003F2121402EB204000F6CF6003EB20100A
:104C00001D4B1C801D4B186002F0B8FC1C4902F0C3
:104C1000BDFD1C4900F0EAFE01464FF07E5002F057
:104C2000F7FB194902F0FEFC02F0FEFE174B18607C
:104C30000022024B1A6010BD704700BFBC0100206B
:104C4000C4010020AC0A0020AE0A0020B60A0020F1
:104C5000B20A0020B0010020A40A0020B00A0020FF
:104C6000A80A0020B80A0020AA0A0020B40A0020DE
:104C7000B801002043E3FFFFB4010020CC01002075
:104C800080E6C547AEDC423E002A2D47C001002029
:104C900008B5034B1B680BB9FFF7FAFE08BD00BF50
:104CA000BC0100202DE9F04182B00D461446104EA3
:104CB0003070DFF840804FF47A7700970123324656
:104CC000EE21D8F80000FCF7FBFBD8F800000097B5
:104CD000A3B23246EE21FCF7B3FC04E0013C044BE6
:104CE0001B5D2B700135002CF8D102B0BDE8F081BE
:104CF000A0010020A00A002008B502221B49AA201A
:104D0000FFF7D0FF02221A49AC20FFF7CBFF0222A7
:104D10001849AE20FFF7C6FF02221749B020FFF75F
:104D2000C1FF02221549B220FFF7BCFF022214493D
:104D3000B420FFF7B7FF02221249B620FFF7B2FFF7
:104D400002221149B820FFF7ADFF02220F49BA2015
:104D5000FFF7A8FF02220E49BC20FFF7A3FF0222A3
:104D60000C49BE20FFF79EFF08BD00BFA80A002027
:104D7000B00A0020B80A0020B40A0020AE0A0020C1
:104D8000AC0A0020AA0A0020A40A0020A60A0020DB
:104D9000B60A0020B20A002008B5024B1860FFF7DF
:104DA000ABFF08BDA00A002008B5064B1B68022B0C
:104DB00006D102220449F620FFF774FFFFF78AFEAE
:104DC00008BD00BFBC010020C4010020084B1B68C7
:104DD000032B0CD110B5074C03222146F620FFF718
:104DE00061FF23681B0A2360FFF798FE10BD704720
:104DF000BC010020B801002010B4401A019CE41A44
:104E000004FB00F0521A90FBF2F0184410BC7047FB
:104E100010B582B00446084641F68F73009340F205
:104E2000D763B3220021FFF7E7FF044B1B681B6821
:104E30003433A40843F8240002B010BDBC0A00209B
:104E400070B50E461546094C20600021FEF734F877
:104E500004212068FEF730F831460020FFF7D8FF24
:104E600029460420FFF7D4FF70BD00BFBC0A002014
:104E700038B50446084615462160114602F0CAFAC4
:104E80000146284602F082FC60600023A362E362D0
:104E900023626362A360E36023616361A361E361F2
:104EA00038BD00BF8160C2600361704741618261AB
:104EB000C361704738B504460D460021284602F00C
:104EC0004FFD28B121460B4802F0A2FA04460EE03D
:104ED0000021284602F062FD48B10021204602F080
:104EE0003FFD20B10449204602F094FA04462046D2
:104EF00038BD00BFDA0F4940DB0FC94070B504462A
:104F00008568C168084602F08DFB0646216908469F
:104F100002F088FB0146304602F07CFA00F0E0FE29
:104F20000146284600F060FD2062E568A168084659
:104F300002F078FB06462169084602F073FB014641
:104F4000304602F067FA00F0CBFE0146284600F03A
:104F50004BFD0546606226693146206AFFF7AAFFCD
:104F6000206231462846FFF7A5FF606270BD00BF92
:104F700010B50446FFF7C2FF236AA362636AE362C7
:104F800010BD00BF38B504460D460F49284602F053
:104F900041FA214602F0E4FC28B10C49204602F017
:104FA00037FA04460DE00849204602F033FA01467C
:104FB000284602F0F3FC20B10449204602F02AFA08
:104FC0000446204638BD00BFDA0F4940DB0FC94018
:104FD00010B5044604E00C49204602F019FA0446D4
:104FE0000949204602F0D0FC0028F4D104E006492B
:104FF000204602F00FFA04460021204602F0B0FCE1
:105000000028F4D1204610BDDB0FC940F8B50D468D
:1050100016461F46FFF7B6FF04463946304602F0F3
:1050200001FB0146204602F0F5F9069902F0FAFA72
:10503000044606994FF07E5002F0EAF901462846F0
:1050400002F0F0FA0146204602F0E4F9FFF7C0FF53
:10505000F8BD00BF70B582B00446FFF74FFFA269EC
:105060002568666802F1004200962B46216AA06A14
:10507000FFF7CCFFA06200962B466269616AE06A86
:10508000FFF7C4FFE06202B070BD00BF08B50D4875
:105090000D4B03604FF48273436000238360C36051
:1050A000036143614FF400728261C3610362436232
:1050B00083620A23C362FDF78BFC08B1FFF78AF80D
:1050C00008BD00BFC00A0020003800400268204B25
:1050D0009A423BD1F0B587B00024009403F5003329
:1050E0001A6C42F480421A641B6C03F480430093F0
:1050F000009B0C2301930227029703940325049538
:105100000526059601A91348FBF724FD4FF480639B
:10511000019302970394049505960F4E01A930461A
:10512000FBF718FD042301930123029303930495D5
:1051300001A93046FBF70EFD224621462420FBF74D
:1051400079FC2420FBF7A8FC07B0F0BD704700BF36
:1051500000380040000802400004024008B5072063
:10516000FBF756FC002211466FF00B00FBF762FCC8
:10517000002211466FF00A00FBF75CFC002211468A
:105180006FF00900FBF756FC002211466FF0040097
:10519000FBF750FC002211466FF00300FBF74AFCBE
:1051A000002211466FF00100FBF744FC002211467B
:1051B0004FF0FF30FBF73EFC08BD00BF08B5FBF722
:1051C00057F9FBF79BFC08BD08B50248FBF7B0FA9E
:1051D00008BD00BFEC09002008B50248FCF770FFCD
:1051E00008BD00BF4C0A002008B50248FDF718F8BA
:1051F00008BD00BF4C0A002008B50248FDF72CFC92
:1052000008BD00BFC00A002008B50248FEF7CCF96F
:1052100008BD00BFD00B002008B50248FEF7C4F956
:1052200008BD00BF900B002082B00368104A934273
:105230000CD1002300930F4B5A6C42F001025A64C8
:105240005B6C03F001030093009B0EE0B3F1804F11
:105250000BD100230193074B1A6C42F001021A6430
:105260001B6C03F001030193019B02B0704700BF68
:10527000000001400038024000B587B00368134ABF
:1052800093420ED14FF44073019302230293002303
:10529000039304930123059301A90D48FBF75AFCDE
:1052A00010E0B3F1804F0DD14FF40043019302237E
:1052B00002930023039304930123059301A9044857
:1052C000FBF748FC07B05DF804FB00BF000001409D
:1052D0000000024000B591B02448254B036015231F
:1052E0004360002383604FF6FF72C2600361436135
:1052F000FDF71CFD08B1FEF76DFF00230E930F9321
:105300000EA91A48FDF7F0FD08B1FEF763FF602310
:1053100007930022089209920A920B920C920D9226
:1053200007A91248FDF74CFD08B1FEF753FF042210
:1053300007A90E48FDF744FD08B1FEF74BFF002317
:10534000009301930293039304934FF40052059248
:10535000069369460548FDF7F1FD08B1FEF73AFFEF
:105360000248FFF789FF11B05DF804FB180B00201D
:105370000000014000B58BB015484FF0804303603A
:10538000002343608360C3600361FDF7CFFC08B175
:10539000FEF720FF00230893099308A90C48FDF7A6
:1053A000A3FD08B1FEF716FF6023019300220292CD
:1053B0000392059201A90648FDF702FD08B1FEF728
:1053C00009FF0348FFF758FF0BB05DF804FB00BF6F
:1053D000540B00200268D36843F02003D360704769
:1053E0000A4BB3F80024B3F802349A420BD0074AB0
:1053F000D3560370B2F802340133C3F30903A2F8A1
:105400000234002070474FF480707047D0010020B4
:1054100008B50A480A4B03604FF4E13343600023A8
:105420008360C36003610C2242618361C361FDF745
:10543000B9FF08B1FEF7CEFE08BD00BFD00B0020BB
:105440000044004008B50A480A4B03604FF461432A
:10545000436000238360C36003610C224261836167
:10546000C361FDF79FFF08B1FEF7B4FE08BD00BFA2
:10547000900B00200014014010B588B00368264A44
:10548000934222D100240194244B1A6C42F400323E
:105490001A641B6C03F400330193019B0C230393E8
:1054A0000223049301230593032306930723079301
:1054B00003A91B48FBF74EFB224621462620FBF79B
:1054C000B9FA2620FBF7E8FA24E0164A934221D1E4
:1054D00000240294114B5A6C42F020025A645B6C17
:1054E00003F020030293029BC0230393022304933F
:1054F00001230593032306930823079303A90A486E
:10550000FBF728FB224621464720FBF793FA47206A
:10551000FBF7C2FA08B010BD00440040003802405A
:10552000000002400014014000080240014B1860D6
:10553000704700BF380C00200322002104E0074B15
:105540001B6A9B5C19440132044B5B6A013B9A4223
:10555000F5D3024A126AC943D1547047100C002097
:1055600008B5274A93690E339BB213801A1DFF2A90
:1055700044DC234B5A621A6A7E2111701A6A5978E8
:1055800051701A6A197891701A6A9978D1701A6AEA
:10559000D97811711A6AD97B51711A6A997B917104
:1055A0001A6A597BD1711A6A197B11721A6AD97AEF
:1055B00051721A6A997A91721A6A597AD1721A6A70
:1055C000197A11731A6A597C51731A6A197C91738A
:1055D0001A6A997CD1731A6ADB7C1374002307E082
:1055E000074A106A03F111015269D25C4254013337
:1055F000034A92699342F3D3FFF79EFF08BD00BFB1
:10560000100C002010B5C0B0FF220021684602F047
:105610004CFA1A4B5A6A1B6A1B788DF8003001232A
:105620000DEB03041BE01549096AC85CA0F17D017C
:10563000C9B2012903D9112801D013280CD1214660
:105640007D2001F8020B0D48006AC05C80F020004C
:10565000607001320C4601E02070013401330749CB
:10566000496A8B42DFD34FF6FF7392B26946044812
:105670000068FDF7C9FE40B010BD00BF100C00204F
:10568000380C00200000000030B40D4B10229A703E
:105690000022DA7008A5D5E90045C3E902454FF6B6
:1056A000FE741C829A74DA74586199610549196212
:1056B0005A6230BC704700BF0ADCA94000A2130048
:1056C000100C0020DC08002008B5FFF7DDFFFFF715
:1056D00047FFFFF797FF08BD7E2803D10122824BC9
:1056E0001A7070477D2803D10122804B1A707047D1
:1056F0007E4B1B7823B100227C4B1A7080F0200077
:10570000794B1B78112B00F2EE80DFE813F01200CA
:1057100019001F00250033003D00470051005B00C9
:1057200065006F00790083008D009700A800A80035
:10573000BC007E2840F0D78001226B4B1A70704766
:105740006B4B58700222684B1A707047684B187088
:105750000322654B1A707047654B9870654B187043
:10576000902803D10422604B1A70704700225E4BD0
:105770001A7070475E4BD8735E4A137818441070E5
:105780000522594B1A707047594B9873594A137830
:10579000184410700622544B1A707047544B5873BB
:1057A000544A13781844107007224F4B1A707047F0
:1057B0004F4B18734F4A13781844107008224A4B05
:1057C0001A7070474A4BD8724A4A137818441070BE
:1057D0000922454B1A707047454B9872454A137819
:1057E000184410700A22404B1A707047404B587290
:1057F000404A1378184410700B223B4B1A707047C4
:105800003B4B18723B4A1378184410700C22364BED
:105810001A707047364B5874364A13781844107013
:105820000D22314B1A707047314B1874314A13787E
:10583000184410700E222C4B1A7070472C4A90742A
:105840002C490B78184408700F21274B1970002140
:10585000294B197013880C3B284A1370704726494E
:105860000A78531CDBB20B7021490A44D0742149D9
:105870000A7810440870214A1278934233D11122D9
:10588000194B1A7070471B4B1B78DB43DBB29842F5
:1058900026D110B5184B187802F0ECF8002304E07C
:1058A000134A1A44D27CC2540133134A12789342E9
:1058B000F6DB134CB4F80033591C01F07F01B4F847
:1058C0000243A14208D00E4C44F8230003F5807334
:1058D00024F81320A4F800130022034B1A7010BD03
:1058E0000022014B1A707047D6050020D405002015
:1058F000400C0020D5050020D7050020DB09002042
:10590000D805002010B40F4BB3F80043B3F80223BE
:10591000944212D053F822200260B3F8022302F519
:10592000807233F812200A60B3F80223013202F0C9
:105930007F02A3F80223002001E04FF4807010BC26
:10594000704700BFD8050020F8B5C1F30A56A6F28B
:10595000FF35132D0A460B460446864611DC002D02
:105960002EDB0F461F4929410A4225D04FF4002360
:105970002B413B4423EA01030026194634462046C6
:10598000F8BD332D05DDB5F5806F1FD011462046DB
:10599000F8BDA6F213464FF0FF3121FA06F6304269
:1059A000F4D00122C5F1330502FA05F52D1828BF00
:1059B0009B1825EA0606E0E70028D7D11146E6E75E
:1059C000013501F0004307D00026D6E702460B461A
:1059D00001F056F80446D2E743F07F5343F44013F6
:1059E0000026CAE7FFFF0F0000F0C8B92DE9F04715
:1059F000DFF8E8828AB006460D4600F051FA98F9C1
:105A000000707B1C04463FD02946284601F0D0FF99
:105A10008246002838D13146304601F0C9FF0021C6
:105A20008146002840F09680304601F08FFF002824
:105A30002ED00021284601F089FF8246D0B1A14B2B
:105A4000CDF82090012230468DE80C0001F076F967
:105A5000CDE90201284601F071F900220023CDE9C9
:105A60000401CDE90623002F62D04FF07E500AB02A
:105A7000BDE8F087284600F093FF28B100212846B2
:105A800001F06EFF00283AD120460AB0BDE8F08749
:105A9000204600F085FF0746002877D000212046E9
:105AA00001F054FF0028EFD0304600F079FF0028C5
:105AB000EAD0284600F074FF0028E5D00423814A8C
:105AC0000093304600230893019201F037F9CDE9A5
:105AD0000201284601F032F998F90030002400252F
